:1000000000800020BD010000051C0000D11B000085
:10001000D11B0000D11B0000D11B0000D11B000030
:10002000D11B0000D11B0000D11B0000051C0000EB
:10003000051C0000D11B0000051C0000C11B0000B6
:10004000051C0000051C0000051C0000051C00002C
:10005000051C0000051C0000051C0000051C00001C
:10006000051C0000051C0000051C0000051C00000C
:10007000051C0000051C0000051C0000051C0000FC
:10008000051C0000051C0000051C0000051C0000EC
:10009000051C0000051C0000051C0000051C0000DC
:1000A00045090000051C0000051C0000051C00009F
:1000B000051C0000051C0000051C0000051C0000BC
:1000C000051C0000051C0000051C0000051C0000AC
:1000D000051C0000051C0000051C0000051C00009C
:1000E000051C0000051C0000051C0000051C00008C
:1000F000051C000065360000051C0000213D0000C5
:10010000051C000021420000051C0000051C000029
:10011000051C0000051C0000051C0000051C00005B
:10012000051C0000051C0000051C0000051C00004B
:10013000051C0000051C0000051C0000051C00003B
:10014000051C0000051C0000051C0000051C00002B
:10015000091800002118000039180000511800008B
:10016000051C00002D230000051C0000051C0000DC
:10017000051C0000051C0000051C0000051C0000FB
:10018000051C0000051C0000051C0000051C0000EB
:10019000051C0000051C0000051C0000051C0000DB
:1001A000051C0000051C0000051C0000051C0000CB
:1001B000051C0000051C0000051C0000564B4CF2FD
:1001C000205210B51A804DF628121A8000BF00BFC9
:1001D00001F01CFD514B4FF010621A60504A9A60BA
:1001E000504ADA60A3F53043203B1A6812F480725B
:1001F00004D14D490A604FF4A8521A604B4B1A784B
:10020000110703D51A7842F008021A70484B2A22C7
:100210001A700023474A48499818884204D247492F
:10022000595899500433F5E7454A464B9A424FF0E6
:10023000000302D242F8043BF7E74349434A5958C6
:1002400099500433B3F5DE7FF7D1414B802103F899
:10025000011B40498B42F9D13F4B1A603F4B8A2228
:100260001A70A3F5805324225A70A0221A709A792A
:100270009207FCD59A79D406FCD4394B9A7902F0CE
:100280000C02082AF9D103221A7140225A719A7974
:100290009006FCD5324B9A795106FBD5314A32494A
:1002A00011600221516020221A702D4B9B7903F0BE
:1002B0000C030C2BF9D12D4B2D4A1A602D4B2E4AD5
:1002C0001A6000225A60072243F8042C2B4AC3F814
:1002D0000C2D62B601F010FF134B1B68DA0705D531
:1002E000274801F059FE274B274A1A60274B1B78F5
:1002F0005B0609D5234C244A2368934204D1204845
:1003000001F04AFE0023236004F040F801F084FC71
:1003100001F0B4FBFEE700BF0E2005403080044032
:10032000823F04000100002B14D0034002D007409C
:1003300000E007406087FF1F1088FF1F384900005A
:100340001088FF1F688FFF1F000000000082FF1F42
:1003500000E400E05FE400E008ED00E0005006404B
:100360000040064044800440000003010480044033
:10037000C010050014E000E0FF760100000020201E
:1003800000B3D4571CE00340A5C3945A00F00740C3
:10039000FFFFFFFFFFFFFFFFFFFFFFFFFFFFFFFF6D
:1003A000FFFFFFFFFFFFFFFFFFFFFFFFFFFFFFFF5D
:1003B000FFFFFFFFFFFFFFFFFFFFFFFFFFFFFFFF4D
:1003C000FFFFFFFFFFFFFFFFFFFFFFFFFFFFFFFF3D
:1003D000FFFFFFFFFFFFFFFFFFFFFFFFFFFFFFFF2D
:1003E000FFFFFFFFFFFFFFFFFFFFFFFFFFFFFFFF1D
:1003F000FFFFFFFFFFFFFFFFFFFFFFFFFFFFFFFF0D
:10040000FFFFFFFFFFFFFFFFFFFFFFFFDEF9FFFF23
:1004100010B5054C237833B9044B13B10448AFF33E
:1004200000800123237010BD1088FF1F0000000012
:100430003849000008B5064B1BB106480649AFF322
:1004400000800648036813B1054B03B1984708BD07
:1004500000000000384900001488FF1F1088FF1FAB
:1004600000000000034B1A8892B242F001021A8089
:10047000704700BF8C88FF1F10B5044601F09CFA3E
:10048000204610BD38B5044608460D4603F0A4FFCB
:10049000236802465B6820462946984738BD38B530
:1004A0000446FFF7EFFF0546204601F09FFA284477
:1004B00038BD38B50A220023044601F0A7FA0546E4
:1004C000204601F093FA284438BDFFFF38B5274D88
:1004D0002B88DB073ED5264C21788A1E514251419C
:1004E000212001F069FD2178B1F1030EDEF1000158
:1004F00051EB0E01092001F05FFD23780133DBB2DF
:10050000032B88BF00231D20237001F075FD0446D6
:10051000012C4FF0180005D1214601F04DFD1C20A3
:10052000214604E0002101F047FD1C20002101F0DC
:1005300043FD1E2001F060FD014601294FF0170028
:1005400018BF002101F038FD2B8823F001031B04A4
:100550001B0C2B802B88054A9B0705D5138823F09D
:1005600002031B041B0C138038BD00BF8C88FF1FC7
:100570002C88FF1F38B53A4C3A493B48FFF782FFB9
:10058000204601210A2200F057FC70B9374936484D
:10059000FFF785FF36493448FFF781FF3549324878
:1005A000FFF77DFF3048344927E034492E48FFF7F4
:1005B00076FF2D483249FFF765FF237B2A48022B3F
:1005C00005D0032B05D0012B05D12E4904E02E497F
:1005D00002E02E4900E02E49FFF761FF01222D487D
:1005E0001F492C4D01F07CF8024648B928461C49A9
:1005F00001F076F820B91C482749FFF750FF38BDB5
:1006000026491948FFF73EFF002395F820101648A9
:100610000A2201F0FBF9144801F0E8F9124801F050
:10062000E5F92B79EC685C43B4F5000F07D21C495F
:100630000D48FFF727FF0C486102FFF73AFF194901
:100640000948FFF71FFF61080748FFF732FF164907
:100650000548FFF717FFE10A0348FFF72AFF38BDF7
:100660006888FF1FE8430000788DFF1F00440000EA
:10067000284400003E440000584400009C44000010
:10068000C5440000D2440000D6440000DA44000013
:10069000DF440000C488FF1FE7440000314500002C
:1006A000454500005B4500007245000010B504465A
:1006B000002C0FDD0121022001F07EFC642001F0FE
:1006C00005FD0220002101F077FC642001F0FEFC12
:1006D000013CEDE710BDFFFF10B51820012101F02E
:1006E00099FC1720012101F095FC2120012101F046
:1006F00091FC0920012101F08DFC0220012101F073
:1007000089FC1B20012101F085FC1C20012101F046
:1007100081FC1B20002101F04FFC1C20002101F076
:100720004BFC1D20002101F075FC0D4C00211E200A
:1007300001F070FC0320FFF7B9FFFFF71BFF094A28
:100740000949204601F022F9084B1B780022627308
:100750002BB1237B03F1604303F564431A7010BD92
:100760005488FF1FFF3D490065040000F08BFF1F08
:10077000F8B5134E134D14480024802731462A46FD
:100780000470477303F0ECFD104831462A460470AC
:10079000477303F0E5FD0E4B0E489C715C719C7233
:1007A0001C730D4B02221A6083F820400B4B0C4A3D
:1007B0001C719C711A601521BDE8F84001F01EB84B
:1007C000790400006087FF1F5488FF1F7888FF1F8F
:1007D0006888FF1F9088FF1FC488FF1F3088FF1F95
:1007E00048460000094B1B7813B9094B1B782BB105
:1007F000084A1378202B03D9012303710020704786
:10080000581C1070044A0120D15470475289FF1FB0
:100810001589FF1F5389FF1FF488FF1F7047FFFFD3
:10082000024B1878024B1B78C01A70475189FF1F82
:100830005089FF1F064A074913780978994204D95D
:10084000591C1170044AD05C70474FF0FF3070475C
:100850005089FF1F5189FF1F1689FF1F054B064A4C
:100860001B7812789A4286BF044AD05C4FF0FF3062
:10087000704700BF5089FF1F5189FF1F1689FF1F56
:1008800070B50E4B1B78144613B90D4B1B7893B102
:100890000C4A1578C5F121039C42164602D9012263
:1008A00002711C46084822462844254401F0EEF80F
:1008B0003570204670BD184670BD00BF5289FF1FBD
:1008C0001589FF1F5389FF1FF488FF1F10B5114BB7
:1008D000DB7803F0200303F0FF045BB9122001F082
:1008E00043FB0D4B1B68A3B10C4A14700C4A1078E3
:1008F000984710BD0B4A13780133DBB2012B1370FC
:1009000002D8094B1B7823B91220BDE8104001F032
:100910002BBB10BD00600640F088FF1F5089FF1FF1
:100920005189FF1F3C89FF1F1589FF1F002202719B
:100930004FF47A710273024A81600260704700BF0F
:100940009845000010B53649CB78DBB213F0100F94
:1009500003F0400201D12AB92CE01020C870002A0F
:10096000F9D110BD03F0040303F0FF012D4AC3B118
:10097000002313702C4A13702C4B1B68144603B1D0
:10098000984723782A4A1BB9274913700120087019
:10099000234BD021997012781A71264B01221A70BC
:1009A00039E001231370244B19701D4BC0229A703B
:1009B0001B7930E01A4CA27802F0100202F0FF011D
:1009C000AAB113F001030ED11A4917480A7800782A
:1009D000904203D9531C0B70154B9B5C2371104B39
:1009E000D0229A7017E0C023A370237913E0134B31
:1009F000032219701220124901F070FA0E4A21796F
:100A000013781F2BC9B206D80648007818B1581CB5
:100A100010700C4AD154024B0222DA7010BD00BF94
:100A200000600640EC88FF1F5389FF1F3889FF1FB5
:100A3000F488FF1F5489FF1F5189FF1F3C89FF1F46
:100A4000CD0800001689FF1F0148FFF76FBF00BFE8
:100A50004089FF1F164B1A6842F480521A60154BEA
:100A6000154A1A60154ADA6002F180421A61144A86
:100A70001A60144B1B78DA0755BF134A134A4FF418
:100A800010714FF4007113F0020F11600CBF104988
:100A900010495B074FF4007254BF0F4B0F4B0A60B5
:100AA00054BF4FF410724FF400721A60704700BFC9
:100AB0003C80044000C0024001401F00011000388B
:100AC00000001F80048CFF1F18B0044008C00440C1
:100AD0001CB004400CC0044014B0044004C00440E6
:100AE000084B1A6842F480621A604FF00042DA62E2
:100AF000FF225A63DA6A002AFCDA024B986BC0B212
:100B0000704700BF00C00240174B184A10B51A606A
:100B1000C307044602D5FFF7E3FF013C052C94BF51
:100B20006308032300229A4204DA0F4910484863FD
:100B30000132F8E723EAE372A4EB420484B10A4AE3
:100B4000D16A11F0F00FFAD009495163926B023C5F
:100B5000F4E7054AD16A11F0F00FFAD0926B013B2D
:100B6000002BF6D110BD00BF00C0024000041F8062
:100B7000FFFF0090064B1A6842F480621A604FF043
:100B80000042DA625863DA6A002AFCDA704700BF72
:100B900000C00240002AF0B50CBF4FF064524FF085
:100BA000605200240F4E104FA65B104D97FBF6F6D7
:100BB000B14255F8145004D3190706D542F08062AB
:100BC00003E002342E2CEDD1F6E75B0707D525F4C0
:100BD000704305F4704542F0007243EA15152A434C
:100BE0000260F0BDB0450000006CDC02E045000092
:100BF00010B50446FFF7CEFF204610BD13B5114CCB
:100C0000052813D8DFE800F0030306090C0F01A83C
:100C10000D490DE001A80D490AE001A80C4907E0C3
:100C200001A80C4904E001A80B4901E00B4901A807
:100C300001220023FFF7DCFF019B2360FFF70AFF7F
:100C400002B010BD7489FF1F00366E0100127A00D9
:100C500000093D00C0C62D0080841E00801A0600D9
:100C600010B5184B1A7802B372B61B78D90707D59E
:100C7000154A1649146809682140154C2160116015
:100C80009A0707D5134A1149146849682140104C46
:100C9000616011605B0707D50F4B0C4A19689268B9
:100CA0000A400B498A601A6062B60C4BDA688242CD
:100CB00007D00B4A1A60D8600A4A40F08040186199
:100CC0001A6010BD7089FF1F80E100E05889FF1F86
:100CD0006489FF1F84E100E088E100E000C0024079
:100CE00001401F0000001F800A4B1B788BB1D90701
:100CF00003D5094A1168094A11609A0703D5064AC3
:100D00005168074A11605B0703D5034B9A68054B8E
:100D10001A6070477089FF1F6489FF1F00E100E0BF
:100D200004E100E008E100E008B50121007901F0EC
:100D300043F9044B1A781AB100221A70FFF7D4FF56
:100D400008BD00BF7889FF1F10B5084B1A7804460C
:100D50002AB901221A70064B1868FFF781FF207923
:100D60000021BDE8104001F027B900BF7889FF1FBE
:100D70007489FF1F10B5837904468BB1008940F256
:100D80000123984207D8C0F500700230FFF7BCFE7F
:100D900040F2022323812046FFF7C6FF0023A37100
:100DA00010BDFFFF73B50B4B1A680092009C0E46F6
:100DB0001D46FFF795FEFF2809D02B680193019B84
:100DC000A2B29BB29B1AB342F3DB002000E00120E9
:100DD00002B070BD908CFF1FF8B505460E46174651
:100DE000FFF7C8FF2846FFF7AFFF4FF4967128467C
:100DF000FFF7D8FF46F04000FFF7BCFE182427FAA3
:100E000004F0C0B2083CFFF7B5FE14F1080FF6D1AC
:100E100026B1082E0CBF8720FF2000E09520FFF7A9
:100E2000A9FE0024FFF75CFE0306E87203D5013437
:100E3000B4F5807FF6D1F8BD2DE9F043514F027132
:100E400085B00023044603738372837143713B684A
:100E50000193104688460121019E01F0ADF82079EA
:100E6000012101F0D7F80121207901F0A5F8464BC6
:100E70001A6842F480521A600620FFF7BFFE434B07
:100E80001868FFF7EDFEB6B20A25FF20013DFFF717
:100E900071FE15F0FF05F8D1FFF726FF2046FFF79A
:100EA00053FF002120460A46FFF796FF012805461A
:100EB000E07209D03B680293029B9B1B9BB2B3F587
:100EC000FA6FEED901233FE0204608214FF4D57296
:100ED000FFF782FF430701D525730EE04FF00409A9
:100EE000FFF7FEFD09F1FF3919F0FF09E072F7D1B4
:100EF000AA284FF0020327D12373237B022B14BFB0
:100F00004FF000094FF08049372100222046FFF7BB
:100F100063FF4A4620462921FFF75EFF0246E07242
:100F200048B13B680393039B9B1B9BB2B3F5FA6FDD
:100F3000EAD9082308E0237B022B19D120463A2165
:100F4000FFF74AFF30B1062363712046FFF7ECFE3E
:100F5000002513E0FFF7C4FD00F0C000C02804BF67
:100F600003232373FFF7BCFDFFF7BAFDFFF7B8FDBE
:100F70002046FFF7D9FE4046FFF740FE284605B061
:100F8000BDE8F083908CFF1F3C8004407489FF1FF4
:100F900073B5114B1A680092009D04461E46FFF778
:100FA0009FFDFF28E0720AD133680193019BAAB22A
:100FB0009BB29B1AB3F5967FF1DD0F2302E0FE286A
:100FC00006D00D2320466371FFF7AEFE002000E03F
:100FD000012002B070BD00BF908CFF1F2DE9F041D1
:100FE000069E04460F4690461D46002B6DD01344C6
:100FF000B3F5007F6CDC83792BB10368994202D191
:101000000389934216D9237B2760032B18BF7F02E5
:101010003A4620461121FFF7DFFE074610B10323B1
:10102000637155E02046FFF7B3FF002850D001233D
:101030002781A3714046FFF767FD284A28491160C0
:10104000EA072B4605D5FFF74BFD771C30706B1E6A
:101050003E46052B94BF5A0803220021914204DA30
:101060001E48204F47630131F8E7A3EB4203F01815
:10107000334683420DD21949CE6A16F0F00FFAD0EA
:10108000184E4E63896B5970C1F307261E700233E8
:10109000EFE700EB420293420BD21049C86A10F00E
:1010A000F00FFAD0896B5970C1F307201870023322
:1010B000F1E723891D44A37AADB2258113B1B5F5BB
:1010C000007F02D32046FFF755FE0120BDE8F081E6
:1010D0002046FFF729FE0020BDE8F08100C0024055
:1010E00000041F80FFFF009007B54FF400730092CB
:1010F0000022FFF773FF03B05DF804FB224B70B5CD
:101100000446186840F4806018604FF00040D862D0
:10111000596300211C4BD86A00281E46FADA1D6864
:10112000505C45F480651D604FF00045DD625863FA
:10113000F06A154B0028FBDA1D68501845F48065ED
:10114000023140781D60B1F5007F4FF00045DD624F
:101150005863DFD10C4BDB6A002BFBDAFF20FFF773
:1011600009FDFF20FFF706FDFFF7BAFCE07200F073
:101170001F00052806D0112320466371FFF7D4FD18
:10118000002070BD012070BD00C0024070B50B464C
:101190000446164609B9122323E0027B032A18BF2E
:1011A0004B021A461821FFF717FE054608B1042323
:1011B00017E02046FE213246FFF7A0FF90B12046FF
:1011C0004FF41671FFF7EEFD08B9152309E020462C
:1011D0000D212A46FFF700FE10B9FFF781FC30B160
:1011E000142363712046FFF79FFD002070BD204649
:1011F000FFF79AFD012070BD014B024A1A6070474B
:101200007489FF1F0110013810B504460121006ADE
:1012100004F1080200F00AFA40B1E3692BB9A368AF
:10122000E361637963F07F036371012010BDFFFF09
:1012300010B50446006900F061F918B1207D024B39
:1012400003EB401010BD00BF8889FF1F70B5044636
:1012500080790D4640B3A369994201D9002070BD41
:1012600002281ED00DB9A5601BE0236AE1681B7C33
:101270004A1E0933681EDA4020FA03F3934200D372
:1012800011B9E269A26000E09B1A1E464EB1206AC5
:10129000A16804F1080200F055F9013E0028F5D1DB
:1012A00070BDE560012070BD70BDFFFF38B583796A
:1012B000054613B390F90530002B1ADA0121FFF728
:1012C000B7FF0446C8B1AB79012B9CBFAB69C361C2
:1012D000EB6943831B0C8382094B1B682BB11830CD
:1012E00004F116019847238B63826B7903F07F0327
:1012F0006B71BDE8384000F0DBB8002038BD00BF9E
:101300007C89FF1F2DE9F74F8379012B04460D4699
:1013100092460BD14379990708D55B070AD5A16995
:10132000E3688B4206D0FFF791FF18B901232371C0
:101330000020A1E0564634E0206A90F804B00BF19A
:10134000FF3B0BEA532B1BF0FF0BC3F308082CD019
:10135000236AA268197C5B69C8F50077BFB2A2F165
:101360000209BE4238BF374609FA01F99944B7F578
:10137000007FD9443AD1424B1A684A4504BF4FF026
:10138000FF321A603F4B494618682A46FFF7FEFEB7
:101390000028CBD005F50075E368F61B1F44B6B2F4
:1013A000E760E368002EC7D14BE0B8F1000FCFD162
:1013B000A16811B9E369BBB910E001AA00F0C2F855
:1013C000002859D0226A019B92F820002E4A4FF63D
:1013D000F871102808BF0A46934205D32046FFF74C
:1013E00013FF0028B4D1A1E7A360B1E7B8F1000F63
:1013F00010D1E268A3699A420CD300F059F8002892
:1014000094D01F4BC3F80090204B1A7842F0010291
:101410001A7005E04846012100F070F8002885D0D8
:101420001B4B984408EB070143462A468B4204D0E5
:1014300012F8010B03F8010BF8E7C8EB0308454469
:10144000AAE7A2699342627901D9A36105E0114B31
:101450001B682BB1BAF1000F02D062F07F026271FB
:1014600063791A0701D4504606E02046FFF71EFFB5
:1014700000283FF45BAFF6E703B0BDE8F08F00BF94
:101480006487FF1F8489FF1FF8FFFF0F888BFF1FF2
:101490008889FF1F7C89FF1F07B502AB012203F873
:1014A000011D1946FFF72EFF03B05DF804FBFFFF97
:1014B00070B50D4B1A781E469AB10C4D0C4B28682E
:1014C00019680C4AFFF762FE60B10B4C216831B11C
:1014D0002868084AFFF75AFE20B100232360002342
:1014E0003370012070BD00BF888BFF1F8489FF1FF0
:1014F0006487FF1F8889FF1F8089FF1F70B50D4D0E
:101500002B68834204460E460DD0FFF7D1FF08B981
:10151000002070BD084B094A18682146FFF7E4FD1A
:101520000028F5D02C60064B1A7816431E70012057
:1015300070BD00BF6487FF1F8489FF1F8889FF1F5C
:10154000888BFF1FC3680133994270B505460C466E
:10155000164601D9002070BD95F82030C069102BC7
:101560000CBF0B0ACB0918440D4B1B68984208D1DD
:1015700095F82030102B0B4B09D1E4B233F814301E
:101580000BE00021FFF7BAFF0028F1D1E2E704F0F9
:101590007F0453F8243023F070433360012070BD82
:1015A0006487FF1F8889FF1F0129F8B504460D468F
:1015B000174631D9C368013399422DD890F82030AD
:1015C000C669102B0CBF0B0ACB091E44134B1B68BA
:1015D0009E4208D194F82030102B114B0AD1EDB265
:1015E00023F815700AE030460021FFF787FF002836
:1015F000F0D1F8BD05F07F0543F82570094B1A7846
:1016000042F001021A70237E012B03D9A3681E4405
:10161000054B1E600120F8BD0020F8BD6487FF1F48
:101620008889FF1F888BFF1F8089FF1F2DE9F74FD7
:10163000156806468A4617461DB101354FF0000968
:1016400005E04B1ED3F10009056859EB0309F36867
:101650002C4603F1010B4FF00008F36898451DD2AA
:101660005C4588BF02243046214601AA88BF254632
:10167000FFF768FF90B1019A631C0AB11D4602E0B2
:101680005A1B524503D008F101081C46E5E73046D5
:1016900021466FF07042FFF787FF58B900201CE029
:1016A00004F1FF38304641462246FFF77DFF00280F
:1016B000F4D04446AC42F3D8396831B93D60B9F151
:1016C000000F09D00135356006E030462A46FFF7A5
:1016D0006BFF0028F2D1E1E7012003B0BDE8F08FF5
:1016E000F8B5394B044619601546CAB1042A01D928
:1016F0000020F8BD00200146FFF700FF0028F7D0CA
:10170000324B03EB051505F5D475AA795306EFD1D5
:10171000D5F81220632AEBD9D5F80E50002DE7D06A
:1017200028460021FFF7EAFE0028E1D0274BB3F856
:101730000B20B2F5007FDBD11A7C002AD8D0D989E2
:101740000029D5D0597B0029D2D0227600222171E0
:101750002274227C01209040814204D0501C072A30
:101760002074F6D9C4E7D98A09B91849496ADE89CB
:10177000A1602E44E661B3F811001F7C6084400133
:1017800007FB016100F2FF10616201EB5021616112
:10179000B3F8130008B90D48006A691A084420FA22
:1017A00002F240F6F4718A42E26001D80C2307E0AD
:1017B0004FF6F4718A4285BFDB6A636210232023EF
:1017C00084F820300120F8BD8489FF1F8889FF1F1D
:1017D000084B02210022196107495A719A719A72C5
:1017E0001A7383F8302083F83C20996383F83E20F5
:1017F000704700BF8C8BFF1F48460000FF2201731B
:1018000042738273C273704708B5034B01221A609A
:10181000024B1B68984708BD0C710340F48BFF1FF7
:1018200008B5034B01221A60024B5B68984708BD5C
:101830001C710340F48BFF1F08B5034B01221A6093
:10184000024B9B68984708BD2C710340F48BFF1F27
:1018500008B5034B01221A60024BDB68984708BDAC
:101860003C710340F48BFF1F054B1A6842F40002E1
:101870001A60044B00221A60034B01221A70704751
:101880003C80044000700340F08BFF1F064B012298
:101890001A6003F588333C331A6822F400021A6098
:1018A000024B00221A70704700700340F08BFF1F3C
:1018B000F0B54578134C144F2B011A194260134AA6
:1018C0009E188660066947F8256000259D501951CD
:1018D000032199504378427B4433DBB2037303F115
:1018E000604303F5644301211A70027B53119B008E
:1018F00003F1604303F5614302F01F0201FA02F2B3
:101900001A60F0BD00710340F48BFF1F08710340A3
:10191000F8B50C4B1B7806460F460BB9FFF7A4FF32
:101920000024094D625DE3B23AB93046737039461E
:10193000FFF7BEFF01202855F8BD0134042CF0D17B
:101940000020F8BDF08BFF1FEC8BFF1F8268002387
:1019500010B51360027B0121541102F01F0201FA3D
:1019600002F2084941F82420074A41785354D15CD7
:1019700031B90133042BFAD1BDE81040FFF786BF1F
:1019800010BD00BF80E100E0EC8BFF1F037870B555
:1019900004460D4616461BB1FFF7D8FF00232370FF
:1019A000256120463146FFF7B3FF10B101232370B4
:1019B00000E02070207870BD037810B504460BB1AC
:1019C000FFF7C4FF0023237010BDF8B506460C4690
:1019D0008F180025BC4207D0336814F8011B1B6820
:1019E000304698470544F5E72846F8BD07B5064B4D
:1019F0001B88ADF80430036801A95B680222984790
:101A000003B05DF804FB00BF5046000070B505460A
:101A10008AB022B90368C9B21B6898472CE0012A32
:101A200008BF0A2221B930228DF82520212413E095
:101A30002124B1FBF2F002FB1011C9B209290AAE50
:101A400094BF303137312644C9B206F8241C014610
:101A500010B1013CE4B2ECE733B1013CE4B20AABB3
:101A600023442D2203F8242C2B6801A95B68284607
:101A70002144C4F1220298470AB070BD08B5FEF7B0
:101A80002BFEFEF723FD01F01DF9FAE7844641EA3B
:101A9000000313F003036DD1403A41D351F8043BE6
:101AA00040F8043B51F8043B40F8043B51F8043B38
:101AB00040F8043B51F8043B40F8043B51F8043B28
:101AC00040F8043B51F8043B40F8043B51F8043B18
:101AD00040F8043B51F8043B40F8043B51F8043B08
:101AE00040F8043B51F8043B40F8043B51F8043BF8
:101AF00040F8043B51F8043B40F8043B51F8043BE8
:101B000040F8043B51F8043B40F8043B51F8043BD7
:101B100040F8043B51F8043B40F8043B403ABDD246
:101B2000303211D351F8043B40F8043B51F8043BE8
:101B300040F8043B51F8043B40F8043B51F8043BA7
:101B400040F8043B103AEDD20C3205D351F8043B77
:101B500040F8043B043AF9D2043208D0D2071CBF43
:101B600011F8013B00F8013B01D30B88038060466C
:101B7000704700BF082A13D38B078DD010F00303E2
:101B80008AD0C3F10403D21ADB071CBF11F8013B52
:101B900000F8013B80D331F8023B20F8023B7BE7A1
:101BA000043AD9D3013A11F8013B00F8013BF9D2CC
:101BB0000B7803704B7843708B7883706046704766
:101BC000024B1A6801321A60704700BF908CFF1FE9
:101BD00008B50B4C2368580301D500F0A7FB236818
:101BE000590501D501F03EFD23681A0501D502F023
:101BF00097F82368DB04ECD502F012FBE9E700BF9D
:101C00003480044008B5FFF7E3FFFFFF014B1022CB
:101C10001A807047002005407047FFFFEFF31383E1
:101C20009BB9EFF3108098B9EFF3058323B10F2B25
:101C300004D9084A985C01E04FF48070EFF31183F7
:101C40003BB1834238BF184670474FF0FF307047B2
:101C500018467047F0E300E010B50023B0FBF2F443
:101C600002FB1400092894BF30303730C0B2C8548A
:101C700020460CB10133F1E7CA18547022469A424B
:101C800006DA885CCC5C8C54C8540132013BF6E720
:101C9000084610BD1F4B10B51C681C60E00304D53E
:101CA0001D4B1A680AB11B689847A10304D51A4B4B
:101CB0005A680AB15B689847E20704D5164B1A6C5C
:101CC0000AB11B6C9847A30704D5134B5A6C0AB191
:101CD0005B6C9847200704D50F4B9A6C0AB19B6C3C
:101CE0009847610704D50C4BDA6C0AB1DB6C984756
:101CF000220304D5084B5A6E0AB15B6E9847630302
:101D000006D5054BD3F8802012B1D3F88030984720
:101D100010BD00BFA0A00440088CFF1F2C4B10B5C5
:101D20001C681C60200704D52A4B5A6A0AB15B6AFA
:101D30009847E10604D5274B9A6A0AB19B6A9847EF
:101D4000620604D5234BDA6A0AB1DB6A9847230698
:101D500004D5204B1A6B0AB11B6B9847A00604D51B
:101D60001C4B5A6B0AB15B6B9847E10704D5194BC2
:101D7000DA6B0AB1DB6B9847A20704D5154B9A6D55
:101D80000AB19B6D9847630704D5124BDA6D0AB10F
:101D9000DB6D9847A00504D50E4BDA6E0AB1DB6EF9
:101DA0009847E10504D50B4B1A6F0AB11B6F984792
:101DB000620504D5074B5A6F0AB15B6F984723053C
:101DC00004D5044B9A6F0AB19B6F984710BD00BFB2
:101DD000A0B00440088CFF1F1E4B10B51C681C608F
:101DE000E00704D51C4B9A680AB19B689847210606
:101DF00004D5194B5A690AB15B699847E20604D5C4
:101E0000154B9A690AB19B699847630704D5124B31
:101E1000DA690AB1DB699847200704D50E4B1A6AC4
:101E20000AB11B6A9847A10704D50B4B9A6B0AB1FC
:101E30009B6B9847A20604D5074B1A6D0AB11B6D20
:101E40009847630604D5044B5A6D0AB15B6D9847F9
:101E500010BD00BFA0C00440088CFF1F114B10B57F
:101E60001C681C60E00404D50F4BDA680AB1DB681B
:101E70009847A10404D50C4B1A690AB11B6998470D
:101E8000A20604D5084B1A6E0AB11B6E9847E306EA
:101E900006D5054BD3F8842012B1D3F88430984787
:101EA00010BD00BFA0900440088CFF1F094B10B567
:101EB0001C681C60A20704D5074B9A6E0AB19B6E82
:101EC0009847E30704D5044BDA6F0AB1DB6F9847F4
:101ED00010BD00BFA0D00440088CFF1F212830B5E2
:101EE00031D8042A2FD8DFE802F00709050B0300D8
:101EF0000B2306E00A2304E0082302E00C2300E0A1
:101F00000923114A114D02EBC0025468104AC2F86D
:101F10009C51104DC2F8A0510F4DC2F8A4510F4D65
:101F2000C2F8A8510E4DC2F8AC5172B622680D4DE0
:101F300022F47022226042F0807242EA034345F8A4
:101F40002010236062B630BD544600005D1E0000C4
:101F50000082FF1F951C00001D1D0000D91D000000
:101F6000AD1E0000088CFF1F094B03EBC0035A682D
:101F700072B6136823F0877323F4803343F08073C1
:101F80001360044B002243F8202062B6704700BF64
:101F900054460000088CFF1F044B054900221A60BC
:101FA0000A60044A106010221A60704714D003407F
:101FB00004D0034000D00340212810B518D80D4AA2
:101FC00052F8303093F880423CB1012211B183F8CD
:101FD000802010BD83F8002110BD02EBC0004368D3
:101FE0001A6811B142F0030201E022F002021A6005
:101FF00010BD00BF54460000212806D8044B53F8FA
:10200000303093F80002C0B270470020704700BF24
:1020100054460000212810B537D81C4A02EBC003F3
:1020200001295B68144601D004290FD154F83020EF
:10203000012082F880024FF4A2721A601A68042903
:102040000CBF42F0200222F020021DE052F83020A6
:10205000002082F8800211B18A1E012A12D84FF4A2
:10206000807202291A6003D11A6842F003020BE061
:1020700003290AD11A6842F002021A601A6822F093
:10208000010201E040F203121A6010BD5446000044
:1020900072B60B4B0B491A680B4B1B68096862B68A
:1020A000490102D5322A88BF0133C2F5BB32602113
:1020B000FF32B2FBF1F24FF47A7000FB032070475D
:1020C00018E000E004ED00E0908CFF1F38B50446F6
:1020D000FFF7DEFF054624B938BD013C0AD005F5FF
:1020E0007A75FFF7D5FF401BB0F57A7FF5D200F087
:1020F000E9FDF6E738BDFFFF204B4FF4000210B5B5
:102100001A604FF080721A604FF000721A604FF040
:1021100080621A604FF000621A60194B194A1A4C1B
:1021200000204BF6FF7118605960282313609360FC
:1021300013619361136293621363936309222260B4
:1021400004F58054043420606160A360236144F886
:10215000042C04F5FE2420600C4801600C490B603F
:102160008B600C4B1A6000F065FF4FF4C870FFF7EE
:10217000ADFFBDE8104000F0D7BB00BF08E100E0B4
:10218000048003400C8003400080034008800B4023
:102190000C800B4000800B40F0B50C4B0C4C1A78B7
:1021A00042F0020504EBC50682F0010270600948A6
:1021B0001A700678002E0CBF8827C82786F0010603
:1021C00047EA0141067044F83510F0BDFC8CFF1F52
:1021D0000080FF1F748DFF1F431E032B10B510D806
:1021E00072B6094A52F8230048B1416842F82310F8
:1021F000064A018832F81340611A22F8131062B6B9
:1022000010BD002010BD00BFEC8CFF1F528FFF1FC0
:10221000013803280AD872B6054B53F82030002045
:1022200013B101305B68FBE762B67047002070476E
:10223000408DFF1F10B572B60123174A1A4412F8D9
:10224000012C12071CD59900144A52F831402CB9C0
:1022500002EB431308305860114B09E041F00101D3
:1022600052F8314064B902EBC103083058600D4B9D
:1022700042F831300C4B1A78013A1A7062B610BD30
:102280000133052BD9D162B6074B00221A70BDE885
:10229000104000F0C7BB00BFB04800000080FF1F27
:1022A00088004000C80040006A8DFF1F431E032BBA
:1022B00030B532D8194A400140F01000104472B6CF
:1022C000174CE25C032A09D8DFE802F01602180571
:1022D0000830022213E00830042210E01148124AAC
:1022E00050F8234014B940F8231002E052F82300BC
:1022F000416042F823100FE0032200E00522E2547F
:1023000010F0080F01F108030A8843600CBF88230E
:10231000C82343EA0243036062B630BD0080FF1F5A
:10232000A88CFF1F408DFF1F508DFF1F2DE9F84F18
:10233000AB4F3C78E4B214F0040F3D4619D0A94BE2
:102340001B78A3B1A84A117801F0FF0321B1013B2A
:10235000DBB2137003B900BEA44A117801F0FF0389
:1023600029B1013BDBB213700BB900F087FC0423E9
:102370003B7004F0080303F0FF02002B00F06782BB
:102380009B4B9C4C1A78D2B215094FEA920840F048
:10239000E48104EBC803596854F83830C3F383036D
:1023A000013B0C2B00F2D681DFE813F0950195017B
:1023B000D401D401D401D401D401D401B001D40199
:1023C000D401D4010D008C4D0A684B688B486B60BA
:1023D00001218B4B44F838302A60DFF850820170BD
:1023E00092B240F2816000238242C8F8003023613B
:1023F000A36117D8B2F5D06F80F01E81B2F5817F4E
:1024000000F0CF8006D8802A00F0BA80822A00F03F
:10241000BB8031E140F202339A4200F0D180B2F544
:10242000A06F1CE042F22100824200F051810ED8E0
:10243000B2F5086F00F09E80B2F5106F40F01C817D
:10244000684B6C4EAA781A7006F180090AE042F2D5
:1024500021218A4200F0088142F221339A4200F0A1
:102460000F8109E1336A1B0603D5706A083800F052
:10247000D9FA08364E45F5D10026B146DFF8B0A1AD
:1024800056F80A0028B1D0F804B000F0CBFA58464C
:10249000F8E74AF806005B4BDFF898A1F05056F8D1
:1024A0000A0028B1D0F804B000F0BCFA5846F8E7AA
:1024B000554B4AF80600F050544B23F81900544B82
:1024C00019F80320023A032A08D8DFE802F00204D0
:1024D0000204002200E0012203F8092009F10109A9
:1024E000B9F1040F06F10406C8D14A4B00221A7054
:1024F00001269A46484A494B3244334412F8012C8B
:102500009B0012F0080F1A704FEA860925D000F0E0
:102510006BFA38B104EB461308305860404B44F86E
:10252000393006E09AF8003044F8390001338AF86F
:10253000003000F059FA49F0010338B104EBC3024E
:10254000083050602E4A44F8332006E044F8330047
:102550009AF8003001338AF8003049F0020201365F
:1025600049F003090023052E44F8323044F839308D
:10257000C0D186E01B4B2B4C1B7823700B4683E0AD
:10258000284C237063707EE0AA88042A74D8254CF6
:10259000920023706370244B9B5C9E0773D521705F
:1025A00071E0AA8802F07F02042A65DC6B88002BA8
:1025B00062D191001C4A0A44117821F0020159E0CD
:1025C000AA8802F07F02042A56DC6B88002B53D1C4
:1025D0009100154A0A44117841F002014AE000BF17
:1025E00080200740738DFF1FFD8CFF1F888DFF1F0C
:1025F000902007400080FF1F608DFF1F748DFF1F1C
:10260000C8004000988CFF1F508DFF1F528FFF1F86
:10261000A88CFF1F6A8DFF1FB048000030C8011052
:10262000880040006B8DFF1FC0200740948CFF1F67
:10263000EC8CFF1F408DFF1F6A88A9889F4B53F8C1
:10264000084CA3F10C00BCB133F80C6C964209D1D4
:1026500033F80A6C8E4205D1120A032A0CBF237884
:10266000038911E00C33EAE7954A1168954A116035
:10267000A978954A117004E0944B0F221A7027E054
:1026800000231C4600E00223EE88B34238BF1E46FA
:10269000402E34BF3546402520462946FFF77CFDB5
:1026A000761B2C4403D1402D12D1354603E0402E39
:1026B00034BF3546402520462946FFF76DFD761B81
:1026C0002C4401D1402D03D1814AC8F80040168026
:1026D0000122804B3DE0804B1A8842F221039A424E
:1026E00010D100237D4AC85C98540133072BF9D1DF
:1026F0001368862B02D17A4B0F221A7000200146F4
:10270000FFF74AFD774B44F8383023E0764E3568C2
:10271000B5B1DFF8BC81B8F80090B9F1400F34BF13
:102720004C46402428462146FFF736FDC4EB0903FA
:102730009BB2A8F800300BB9402C00D12B193360A4
:10274000654B1A88B2F5A06F04D100225A709A78AE
:10275000664B1A7001225F4B6CE004EBC806013D2A
:10276000736802F00802A3F10800EDB202F0FF0165
:10277000002A36D000F056F95D485E4B50F825200F
:10278000EAB1516840F8251002F108017160595D05
:1027900003290BD8DFE801F002040608032104E056
:1027A000022102E0052100E00421595516F0080F2E
:1027B00012880CBF8823C82343EA024342E05A5DD3
:1027C000032A07D8DFE802F040400204002206E0B6
:1027D000012204E016F0080F0CBF022203225A5512
:1027E00032E054F83820120C23F8082C22B3DFF81A
:1027F00034E123F8061C43F8041C5EF825303E49FA
:1028000013B94EF8250002E051F8253058603B4BD3
:1028100041F8250033F815100A4423F8152000F07C
:10282000E3F810B10830706006E0354B44F838002A
:102830001A7801321A7007E02A4B324A16F0080F54
:1028400008BF134644F8383008233B7070E5E007B2
:102850001FD520492B482C4C02230B702B4B1A7090
:102860002B4B186098602B48D8601A619A615C60A5
:10287000164B0D2018702848FF2303702B7002742C
:10288000264A1370264B9F221A7001230B70BDE855
:10289000F88F210604D50D4B0D221A7080232B7062
:1028A000A20705D51C4B1A78D2B21A7002232B70DE
:1028B000E30644BF10232B70BDE8F88FC04800002A
:1028C000908CFF1F648FFF1F988DFF1FC020074053
:1028D000688DFF1F94200740608DFF1F5C8FFF1FD6
:1028E000FD8CFF1FC8004000948CFF1F98200740FC
:1028F000408DFF1FA88CFF1F988CFF1F528FFF1F5A
:102900006A8DFF1F88004000AC8CFF1FFC8CFF1FEE
:102910000080FF1F008DFF1F882007408C2007408C
:1029200084200740EC8CFF1F08B501F0E1FC002279
:102930001A4B0021D15098180832882A4160F7D1EB
:10294000174A106840F48020106002F5283268327F
:10295000C3F307201070C3F307401B0E10751376E6
:10296000FF2302F81C3C02F8143C02F88C3C0123C3
:1029700002F8083C82F8641002F8183C094B7022F7
:102980006FF450711A700B444FF400721A6003F127
:10299000C04303F5C82310221A7008BD0080FF1F32
:1029A0003480044049E400E000F0A0B800F05CB8D6
:1029B00000F080B800F034B900F0A6B8084600F086
:1029C00023B90846114600F0B7B87047044B0022FF
:1029D0001A714FF47A711A73024A99601A6070473B
:1029E000788DFF1F7047000072B60C4A1168B1FA6B
:1029F00081F30B2B02D962B6002070474FF00040E4
:102A0000D84021EA0001116062B6054948225343CB
:102A1000C8180022CA504260704700BF6887FF1F75
:102A20000084FF1F0C4B4822C31AB3FBF2F30B2B9D
:102A300011D80A4A127822B1094A12780AB1FFF76E
:102A4000F9BB72B6074A4FF0004121FA03F311684F
:102A50001943116062B670470084FF1F6A8DFF1F23
:102A6000738DFF1F6887FF1F10B5104C23686BB173
:102A700020684288531C0244147A0288934212D37D
:102A8000FFF7D0FF094B00221A600DE0084B1B78BE
:102A900013B94FF0FF3010BD0320FFF79DFB2060FE
:102AA0000028E5D1F5E74380204610BD948DFF1F37
:102AB000738DFF1F10B50B4C236813B123686BB9DE
:102AC00002E0094B1B7813B94FF0FF3010BD032013
:102AD000FFF782FB20600028F0D1F5E75A88134405
:102AE000187A10BD948DFF1F738DFF1F044B9888BB
:102AF000044B1B681BB11A885B88D31A18447047B3
:102B0000528FFF1F948DFF1F10B5094B1B786BB1BF
:102B1000084C206818B1FFF785FF002323600320CD
:102B2000FFF75AFB10B1FFF77DFFF8E710BD00BFBC
:102B3000738DFF1F948DFF1F2DE9F8432D4E012348
:102B400007460C463370002C4FD02B4D2B68A946FE
:102B50002BBB4AF2F928294B1B7803F0FF020BB973
:102B6000327015E00420FFF753FB072808D8012333
:102B70003370FFF739FFC9F8000080B91D4B18709A
:102B8000B8F101081E4B01D01A782AB101221A703F
:102B90004FF0FF30BDE8F88300F094F8DBE72968D8
:102BA000174A488800231370C0F14002944238BF8E
:102BB000224600F1080C10448C444880A41A934229
:102BC00004D0F85C0CF803000133F8E71F444B888D
:102BD0003F2B06D940230B800420FFF767FB00231F
:102BE0002B60084B05221A70ADE734702046BDE813
:102BF000F88300BF898DFF1F8C8DFF1F738DFF1F12
:102C0000908DFF1F888DFF1F07B502AB012103F8D0
:102C1000010D1846FFF790FF03B05DF804FBFFFFBE
:102C20002DE9F041114B1B78F3B1114E114B346873
:102C3000114D01271F7098464CB1002763882F70F3
:102C4000042023802146FFF731FB376009E0FFF7BE
:102C5000CBFE014620B104202C70FFF727FB00E0DB
:102C60002F70002388F80030BDE8F081738DFF1FBE
:102C70008C8DFF1F898DFF1F888DFF1F38B50E4B70
:102C80001B7803F0FF05ABB90C4C216831B14B88C0
:102C90000B800420FFF70AFB256038BDFFF7A4FE78
:102CA000014620B10420BDE83840FFF7FFBA044BCD
:102CB00001221A7038BD00BF898DFF1F8C8DFF1F48
:102CC000888DFF1F10B50E4C2378BBB901232370EC
:102CD000FFF70CFF08B1FFF778FE00F04DFC08B1DC
:102CE00000F089F800F0A6FF08B100F00CF901F03F
:102CF00033FA08B100F08FF90023237010BD00BF34
:102D0000998DFF1F08B50368C9B21B68984708BDB5
:102D100008B50368C9B21B68984708BD08B50368C1
:102D2000C9B21B68984708BD08B50368C9B21B68DB
:102D3000984708BD4B0803F1376000F5D830B0FB69
:102D4000F1F000F0D3B910B54B0803F1376000F58E
:102D5000D8301446B0FBF1F000F0C8F92046BDE8C9
:102D6000104000F027BA00F04FBA084600F080BAD1
:102D7000084600F0CFBA0846114600F095BA08B5EB
:102D8000084600F0EDFA003018BF012008BD08B574
:102D9000084600F007FB003018BF012008BD00F016
:102DA000EBBB00F023BC00F0F7BB00F0C9BB00F0A8
:102DB00035BC00F0CFBB08B5084600F019FB012078
:102DC00008BD08B5084600F013FB012008BD10B58A
:102DD00008461446114600F055FB204610BD38B594
:102DE00008460D4601F0F8FA04462146284600F050
:102DF00049FB204638BD7047044B00221A714FF43E
:102E00007A711A73024A99601A6070479C8DFF1F8D
:102E10009847000008B50368C9B21B68984708BD09
:102E200008B50368C9B21B68984708BD08B50368B0
:102E3000C9B21B68984708BD08B50368C9B21B68CA
:102E4000984708BD4B0803F1376000F5D830B0FB58
:102E5000F1F000F08BBC10B54B0803F1376000F5C2
:102E6000D8301446B0FBF1F000F080FC2046BDE8FD
:102E7000104000F0DFBC00F007BD084600F05CBD6C
:102E8000084600F0ABBD0846114600F071BD08B51C
:102E9000084600F0CBFD003018BF012008BD08B582
:102EA000084600F0E5FD003018BF012008BD00F025
:102EB000C1BE00F0F9BE00F0CDBE00F09FBE00F034
:102EC0000BBF00F0A5BE08B5084600F0EFFD0120DD
:102ED00008BD08B5084600F0E9FD012008BD10B5A1
:102EE00008461446114600F02BFE204610BD38B5AA
:102EF00008460D4601F070FA04462146284600F0C7
:102F00001FFE204638BD7047044B00221A714FF453
:102F10007A711A73024A99601A607047AC8DFF1F6C
:102F2000F847000008B50368C9B21B68984708BD98
:102F300008B50368C9B21B68984708BD08B503689F
:102F4000C9B21B68984708BD08B50368C9B21B68B9
:102F5000984708BD4B0803F1B76000F55840B0FB37
:102F6000F1F000F061BF10B54B0803F1B76000F558
:102F700058401446B0FBF1F000F056FF2046BDE883
:102F8000104000F093BF00F0BBBF084600F0ECBF5C
:102F9000084601F02DB80846114601F001B808B501
:102FA000084601F027F8003018BF012008BD08B519
:102FB000084601F041F8003018BF012008BD01F0BB
:102FC000CBB801F003B901F0D7B801F0A9B801F00E
:102FD00015B901F0AFB808B5084601F04BF801206B
:102FE00008BD08B5084601F045F8012008BD10B538
:102FF00008461446114601F087F8204610BD38B542
:1030000008460D4601F0E8F904462146284601F03D
:103010007BF8204638BD7047044B00221A714FF4EC
:103020007A711A73024A99601A607047BC8DFF1F4B
:103030005848000010B5204B2048214960221A70E2
:10304000E1225A701F4B204A1C78204B082C01D1DA
:10305000012402E00A2C03D139240460132005E086
:103060000C2C0CBF35243D24046012200860146031
:103070001860174B17491B78174A03B101230B60DF
:103080001360164B164A1978164B012901D8802176
:103090000BE0042901D8842107E0082901D8852103
:1030A00003E0102994BF86218721116019600E4B1F
:1030B00001221A7010BD00BF0040074008B0034055
:1030C0000CB003406C87FF1F08B00B400CB00B40E6
:1030D000CD8DFF1F20B0034020B00B406D87FF1F38
:1030E00024B0034024B00B40CC8DFF1F234B1A6843
:1030F00042F480621A60224A00231370214A13703E
:10310000214A1370214A1370214A1370214B1B78F6
:103110002BB1152B07D140F213321F4B02E01F4B8E
:1031200040F213321A601E4B1B78012B05D0052B81
:1031300007D14FF451721B4B02E01B4B4FF45172FD
:103140001A601A4BC0F344321A70C0F347125A7017
:103150000221042200F01F0098729A70D9745A75E7
:1031600088221A743C22DA70114B40226FF44A71A3
:103170001A700B444FF400521A60704734800440B8
:10318000578EFF1FD58DFF1F608EFF1F588EFF1FAC
:10319000D48DFF1F168EFF1F18C0044040A00440AE
:1031A0006E87FF1F1CC0044044A0044000A00640DE
:1031B0002DE400E0134A937800F0030103F0EC03E0
:1031C0000B43410748BF43F01003937000F00F0317
:1031D000042B0C4903D18B7943F040038B71537955
:1031E000C20603F0EF03074A48BF43F010035371D0
:1031F0009379810603F0EF0348BF43F01003937106
:10320000704700BF00A0064008B5114B1B685B0566
:1032100000D408BD0F4B1A7802F0FF0312B1FFF77C
:1032200051FDF7E70C4A4FF4005111600B4A0C496D
:10323000D37040F203120A604A600A4A13700A4AC5
:1032400013700A4B1B680BB101221A7008BD00BF36
:1032500034800440D48DFF1F84E100E000A00640CC
:1032600040A00440578EFF1FD58DFF1FD08DFF1F3C
:1032700038B50446094B1B7803F0FF05002BF9D144
:1032800020460121FEF7C6FE20462946FEF794FEA1
:10329000034B53F83420034B1A6038BDD48DFF1F05
:1032A000544600005C8EFF1F10B509B140F080004D
:1032B000144A13789842144622D0134A12685205D1
:1032C0001DD503F07F03012B04D0052B05D100226F
:1032D0000E4B01E00E4B00221A60002900F07F0225
:1032E0000CBF44236023012A05D0052A07D143F4EB
:1032F0004073064A02E0064A43F4407313602070AC
:1033000010BD00BF6E87FF1F348004401CC0044006
:1033100044A004400E4A1378984218D00D49096819
:10332000490513D52BB1152B05D10B4B0021196085
:1033300001E00A490B6028B1152807D140F213318A
:10334000054B02E0054B40F21331196010707047D5
:10335000168EFF1F3480044018C0044040A0044073
:103360000D4A38B5146814F480624FF0000410D090
:1033700021280A4D0AD80A4A012152F830302B6020
:10338000FEF748FE2B681C70012038BD2C602046DB
:1033900038BD104638BD00BF34800440D08DFF1FBB
:1033A000544600000E4B1B6813F4806316D012289D
:1033B0000C4B03D140F202310B4A04E0142809D12E
:1033C0000A4A40F2023111605A7B42F001025A73FC
:1033D000012070475A7B02F0FE025A7300207047AA
:1033E0003480044000A006400CA0044014C00440F7
:1033F000F8B51D4B1B685A05064633D51B4B1B6899
:103400000BB101221A701A4B1C780134402C1F4654
:1034100028BF0024174D2B78A34218D1FEF7FEFBDE
:1034200040280FDC144A13791B06F3D52B78134977
:103430000133402B28BF0023C95CDBB2C9B2D17174
:103440002B70E7E7FF28E5DDFFF73CFCE2E70B4BDD
:10345000F6B21E550A4B01221A70074BE4B2BC2289
:103460003C70DA70F8BD00BF348004405C8EFF1FF2
:10347000608EFF1F588EFF1F00A00640D68DFF1FD5
:10348000D48DFF1F274B1B685A052DE9F0470746CF
:103490008A4644D5244B1B680BB101221A703D4665
:1034A00007EB0A039D4237D2DFF890801F4E98F851
:1034B000004096F800900134402C28BF00245FFAA9
:1034C00089F9A1451DD11A4BBC22DA70FEF7A6FB83
:1034D00040280FDC164A13791B060FD5337815499F
:1034E0000133402B28BF0023C95CDBB2C9B2D171C4
:1034F000337003E0FF2801DDFFF7E4FB33784B4531
:10350000E4D00C4B15F8012B1A550B4B0122E4B2F9
:103510001A7088F80040C3E7054BBC22DA70BDE89A
:10352000F08700BF348004405C8EFF1F588EFF1F61
:1035300000A00640D68DFF1FD48DFF1F608EFF1F99
:1035400008B5034B1B7813B1FFF7BCFBF9E708BDC7
:10355000D48DFF1F064A074B1B781078DBB2C0B230
:1035600083422CBF3F3000F1FF30C01A704700BFCC
:10357000588EFF1F608EFF1F054B1878054B1B7878
:10358000C0B2DBB2984238BF4030C01A704700BFAB
:10359000578EFF1FD58DFF1F10B5104B10491A789D
:1035A0000B78D2B2DBB29A4214D00133402B28BF41
:1035B00000230C48DCB2C05C0C700B490968C0B237
:1035C00051B19A4238BF4032D31A1A2B04DC00237F
:1035D0000B7010BD4FF0FF3010BD00BF578EFF1FA6
:1035E000D58DFF1F178EFF1FD08DFF1F084B1A7838
:1035F000084B1B78DBB29A4207D00133402B28BF1F
:103600000023054AD05CC0B270474FF0FF307047CE
:10361000578EFF1FD58DFF1F178EFF1F0C4B1B688A
:103620005B0514D50B4BDA7802F0CB02DA7040223E
:103630005A74DA7842F03402DA70074B1A78074B82
:10364000D2B21A70064B1B680BB100221A70704779
:103650003480044000A00640D58DFF1F578EFF1F09
:10366000D08DFF1F30B5374B1A7912F0300F31D0A3
:1036700072B69A7D02F0FF0022B9DA7940225A74BC
:1036800062B627E062B6304A304913780978DBB277
:10369000C9B214462B4AD5795A1C402A28BF0022A9
:1036A0008A42EDB202D02A4B9D541346421E12F0BC
:1036B000FF00EFD1DAB22270264A126852B18B4273
:1036C00036BFC1F14001C1EB03035B18272BC4BF18
:1036D000012313701B4BD978C9B20C0620D51B7976
:1036E00018061DD51C4B1D4A1D781378EDB2DBB2B0
:1036F0001046AB420CD0134A0133402B1479184CBE
:1037000028BF0023E45CE4B2D471127D072AF0D90B
:10371000DBB203700B4B1A79120644BF7C22DA70BD
:103720004B060ED5074B1A7912F0400F194608D0F8
:103730000C4B00221A700C4B1B6803B11A703C230F
:10374000CB7030BD00A00640578EFF1FD58DFF1FE8
:10375000178EFF1FD08DFF1F608EFF1F588EFF1F1B
:10376000D68DFF1FD48DFF1F5C8EFF1F234B1A6861
:1037700042F400621A60224A00231370214A137037
:10378000214A1370214A1370214A1370214B1B7870
:10379000092B05D01A2B07D140F213321E4B02E041
:1037A0001E4B40F213321A601D4B1B780A2B05D0BA
:1037B0001F2B07D14FF451721A4B02E01A4B4FF4F2
:1037C00051721A60194BC0F344321A70C0F3471299
:1037D0005A7000F01F000422022198729A70D97466
:1037E0005A7588221A743C22DA70114B40221A70E2
:1037F000A3F22B334FF400421A6070473480044028
:10380000D28EFF1F698EFF1FD88EFF1FD38EFF1F22
:10381000688EFF1F6F87FF1F04D004400CB0044068
:103820007087FF1F00D0044010B0044000B0064075
:103830002FE400E0134A937800F0030103F0EC0357
:103840000B43410748BF43F01003937000F00F0390
:10385000042B0C4903D18B7943F040038B715379CE
:10386000C20603F0EF03074A48BF43F01003537149
:103870009379810603F0EF0348BF43F0100393717F
:10388000704700BF00B0064008B51E4B1B681B0503
:1038900000D408BD1C4B1B7803F0FF0213B1FFF7E7
:1038A00011FAF7E7194B4FF400411960184BDA7021
:1038B000184B1B78092B05D01A2B07D140F20312A5
:1038C000154B02E0154B40F203121A60144B1B78A3
:1038D00003F07F030A2B05D01F2B07D140F2031200
:1038E000104B02E0104B40F203121A600F4A002303
:1038F00013700F4A13700F4B1B680BB101221A7023
:1039000008BD00BF34800440688EFF1F84E100E0E2
:1039100000B006406F87FF1F04D004400CB0044085
:103920007087FF1F00D0044010B00440D28EFF1FEC
:10393000698EFF1F648EFF1F38B50446094B1B7844
:1039400003F0FF05002BF9D120460121FEF762FBB1
:1039500020462946FEF730FB034B53F83420034B37
:103960001A6038BD688EFF1F54460000D48EFF1FBA
:1039700010B509B140F08000144A137898421446FB
:1039800022D0134A126812051DD503F07F030A2BBB
:1039900004D01F2B05D100220E4B01E00E4B00225C
:1039A0001A60002900F07F020CBF442360230A2A1A
:1039B00005D01F2A07D143F44073064A02E0064AA5
:1039C00043F440731360207010BD00BF7087FF1F69
:1039D0003480044000D0044010B004400F4A1378F3
:1039E00098421AD00E490968090515D5092B04D04B
:1039F0001A2B05D100210B4B01E00B4B0021196064
:103A0000092805D01A2807D140F21331054B02E0EE
:103A1000054B40F213311960107070476F87FF1F1C
:103A20003480044004D004400CB004400D4A38B542
:103A3000146814F400624FF0000410D021280A4DDD
:103A40000AD80A4A012152F830302B60FEF7E2FA18
:103A50002B681C70012038BD2C60204638BD1046F4
:103A600038BD00BF34800440648EFF1F5446000000
:103A70000B4B1B6813F4006310D01728094B09D1B6
:103A8000094A40F2023111605A7B42F001025A7336
:103A9000012070475A7B02F0FE025A7300207047E3
:103AA0003480044000B0064008B00440F8B51D4B17
:103AB0001B681A05064633D51B4B1B680BB1012248
:103AC0001A701A4B1C780134282C1F4628BF00247A
:103AD000174D2B78A34218D1FEF7A0F840280FDC31
:103AE000144A13791B06F3D52B7813490133282B7D
:103AF00028BF0023C95CDBB2C9B2D1712B70E7E7E4
:103B0000FF28E5DDFFF7DEF8E2E70B4BF6B21E55C6
:103B10000A4B01221A70074BE4B2BC223C70DA70E7
:103B2000F8BD00BF34800440D48EFF1FD88EFF1F25
:103B3000D38EFF1F00B006406A8EFF1F688EFF1FE6
:103B4000274B1B681A052DE9F04707468A4644D5DE
:103B5000244B1B680BB101221A703D4607EB0A0388
:103B60009D4237D2DFF890801F4E98F8004096F8BB
:103B700000900134282C28BF00245FFA89F9A14560
:103B80001DD11A4BBC22DA70FEF748F840280FDC32
:103B9000164A13791B060FD5337815490133282BA4
:103BA00028BF0023C95CDBB2C9B2D171337003E016
:103BB000FF2801DDFFF786F833784B45E4D00C4B46
:103BC00015F8012B1A550B4B0122E4B21A7088F834
:103BD0000040C3E7054BBC22DA70BDE8F08700BFA8
:103BE00034800440D48EFF1FD38EFF1F00B00640E8
:103BF0006A8EFF1F688EFF1FD88EFF1F08B5034B0C
:103C00001B7813B1FFF75EF8F9E708BD688EFF1F58
:103C1000064A074B1B781078DBB2C0B283422CBF38
:103C2000273000F1FF30C01A704700BFD38EFF1F4E
:103C3000D88EFF1F054B1878054B1B78C0B2DBB23E
:103C4000984238BF4030C01A704700BFD28EFF1F65
:103C5000698EFF1F10B5104B10491A780B78D2B23D
:103C6000DBB29A4214D00133402B28BF00230C480A
:103C7000DCB2C05C0C700B490968C0B251B19A4209
:103C800038BF4032D31A1A2B04DC00230B7010BD4E
:103C90004FF0FF3010BD00BFD28EFF1F698EFF1F97
:103CA000928EFF1F648EFF1F084B1A78084B1B78FB
:103CB000DBB29A4207D00133402B28BF0023054ACC
:103CC000D05CC0B270474FF0FF307047D28EFF1FFC
:103CD000698EFF1F928EFF1F0C4B1B681B0514D5AE
:103CE0000B4BDA7802F0CB02DA7040225A74DA78A1
:103CF00042F03402DA70074B1A78074BD2B21A70CE
:103D0000064B1B680BB100221A70704734800440C8
:103D100000B00640698EFF1FD28EFF1F648EFF1F0A
:103D200030B5374B1A7912F0300F31D072B69A7D18
:103D300002F0FF0022B9DA7940225A7462B627E015
:103D400062B6304A304913780978DBB2C9B21446FA
:103D50002B4AD5795A1C402A28BF00228A42EDB24C
:103D600002D02A4B9D541346421E12F0FF00EFD1A1
:103D7000DAB22270264A126852B18B4236BFC1F1C4
:103D80004001C1EB03035B18272BC4BF0123137051
:103D90001B4BD978C9B20C0620D51B7918061DD546
:103DA0001C4B1D4A1D781378EDB2DBB21046AB42B6
:103DB0000CD0134A0133282B1479184C28BF002348
:103DC000E45CE4B2D471127D072AF0D9DBB203704F
:103DD0000B4B1A79120644BF7C22DA704B060ED5C3
:103DE000074B1A7912F0400F194608D00C4B0022ED
:103DF0001A700C4B1B6803B11A703C23CB7030BD9A
:103E000000B00640D28EFF1F698EFF1F928EFF1FEB
:103E1000648EFF1FD88EFF1FD38EFF1F6A8EFF1F79
:103E2000688EFF1FD48EFF1F174B1A6842F4805212
:103E30001A60164A00231370154A1370154A13703E
:103E4000154A1370154A1370154A40F21331116068
:103E50004FF451715160134AC0F344311170C0F3F3
:103E6000471100F01F0051709072937013742C234F
:103E7000D3700D4B40226FF44B711A700B444FF40A
:103E800000321A60704700BF348004404A8FFF1F21
:103E9000E18EFF1F508FFF1F4B8FFF1FE08EFF1F14
:103EA00008C0044000C0064031E400E0134A9378A3
:103EB00000F0030103F0EC030B43410748BF43F05C
:103EC0001003937000F00F03042B0C4903D18B797E
:103ED00043F040038B715379C20603F0EF03074AA6
:103EE00048BF43F0100353719379810603F0EF0349
:103EF00048BF43F010039371704700BF00C00640F5
:103F000008B5114B1B68DB0400D408BD0F4B1A78B1
:103F100002F0FF0312B1FEF7D5FEF7E70C4A4FF4AB
:103F2000003111600B4A0C49D37040F203120A6051
:103F30004A600A4A13700A4A13700A4B1B680BB195
:103F400001221A7008BD00BF34800440E08EFF1FBC
:103F500084E100E000C0064008C004404A8FFF1F13
:103F6000E18EFF1FDC8EFF1F38B50446094B1B781E
:103F700003F0FF05002BF9D120460121FEF74AF896
:103F800020462946FEF718F8034B53F83420034B1C
:103F90001A6038BDE08EFF1F544600004C8FFF1F93
:103FA00010B509B140F080000E4A1378984217D03E
:103FB0000D4C2468E40412D503F07F03082B02D1D2
:103FC0000A4B00241C60002900F07F030CBF442131
:103FD0006021082B03D1054B41F44071196010702A
:103FE00010BD00BF7187FF1F348004400CC0044027
:103FF0007047FFFF0D4A38B5146814F480524FF033
:10400000000410D021280A4D0AD80A4A012152F88A
:1040100030302B60FDF7FEFF2B681C70012038BD8F
:104020002C60204638BD104638BD00BF34800440A7
:10403000DC8EFF1F544600000B4B1B6813F48053AB
:1040400010D00E28094B09D1094A40F20231116003
:104050005A7B42F001025A73012070475A7B02F0EA
:10406000FE025A73002070473480044000C00640AE
:1040700004C00440F8B51D4B1B68DA04064633D56E
:104080001B4B1B680BB101221A701A4B1C780134B0
:10409000282C1F4628BF0024174D2B78A34218D187
:1040A000FDF7BCFD40280FDC144A13791B06F3D53D
:1040B0002B7813490133282B28BF0023C95CDBB2BE
:1040C000C9B2D1712B70E7E7FF28E5DDFEF7FAFDF5
:1040D000E2E70B4BF6B21E550A4B01221A70074B52
:1040E000E4B2AC223C70DA70F8BD00BF348004400A
:1040F0004C8FFF1F508FFF1F4B8FFF1F00C00640CC
:10410000E28EFF1FE08EFF1F38B504464518AC4213
:1041100004D014F8010BFFF7ADFFF8E738BDFFFF3F
:1041200008B5034B1B7813B1FEF7CCFDF9E708BDCA
:10413000E08EFF1F064A074B1B781078DBB2C0B237
:1041400083422CBF273000F1FF30C01A704700BFF8
:104150004B8FFF1F508FFF1F054B1878054B1B78A7
:10416000C0B2DBB2984238BF4030C01A704700BFBF
:104170004A8FFF1FE18EFF1F10B5104B10491A78B0
:104180000B78D2B2DBB29A4214D00133402B28BF55
:1041900000230C48DCB2C05C0C700B490968C0B24B
:1041A00051B19A4238BF4032D31A1A2B04DC002393
:1041B0000B7010BD4FF0FF3010BD00BF4A8FFF1FC6
:1041C000E18EFF1F0A8FFF1FDC8EFF1F084B1A783E
:1041D000084B1B78DBB29A4207D00133402B28BF33
:1041E0000023054AD05CC0B270474FF0FF307047E3
:1041F0004A8FFF1FE18EFF1F0A8FFF1F054B1A78A2
:10420000054BD2B21A70054B1B680BB100221A7015
:10421000704700BFE18EFF1F4A8FFF1FDC8EFF1F1C
:1042200010B5294B1A79920620D5284AD8791378E7
:1042300027490133402B097828BF00238B42C0B2A5
:1042400003D02449C854D9B21170234A116869B106
:10425000224A1278D2B2934236BFC2F14002C2EB78
:1042600003039B18272BC4BF01230B70164AD17878
:10427000C9B20C0616D51379180613D5184B174872
:104280001C780378DBB29C4202D16C23D37009E026
:104290000133282B28BF0023124CE45CDBB2E4B2CC
:1042A000D47103704B060ED5074B1A7912F0400FEC
:1042B000194608D00C4B00221A700C4B1B6803B136
:1042C0001A702C23CB7010BD00C006404A8FFF1F10
:1042D000E18EFF1F0A8FFF1FDC8EFF1F4B8FFF1F1A
:1042E000508FFF1FE28EFF1FE08EFF1F4C8FFF1FBE
:1042F0001FB572B6154B70221A70154A4121117004
:104300000F2102F8011C80221A701A781206FCD5BF
:10431000104B186862B6104B984298BF0A2301AC44
:1043200098BF584321460A22FDF796FC0023E15C22
:104330000A4A29B102EB430001330A2B4180F6D12E
:1043400001335B00137004B010BD00BF00000240D9
:1043500007000240080002407F969800FA87FF1F7E
:1043600003460846194600F001B8FFFF70B5064C39
:1043700006460D4613462CB131462A460220AFF3BD
:10438000008070BD204670BD0000000070B50E4B6F
:104390000E4DED1AAD1000241E46AC4204D056F866
:1043A000242090470134F8E700F0AEFA084D094B9D
:1043B000ED1AAD1000241E46AC4204D056F824205D
:1043C00090470134F8E770BD14490000144900001B
:1043D0003849000014490000034613F8012B002A55
:1043E000FBD1181A013870470A496E697469616C0B
:1043F000697A696E6720534420636172642E2E00CF
:10440000696E697469616C697A6174696F6E20663E
:1044100061696C65642E205468696E677320746FDF
:1044200020636865636B3A002A206973206120630A
:1044300061726420696E7365727465643F002A203E
:10444000697320796F757220776972696E6720636E
:104450006F72726563743F002A2064696420796F0B
:1044600075206368616E676520746865206368699C
:104470007053656C6563742070696E20746F206D75
:104480006174636820796F757220736869656C6404
:10449000206F72206D6F64756C653F00576972699B
:1044A0006E6720697320636F727265637420616E3A
:1044B0006420612063617264206973207072657387
:1044C000656E742E000A4361726420747970653AD7
:1044D00020005344310053443200534448430055B4
:1044E0006E6B6E6F776E00436F756C64206E6F74C9
:1044F0002066696E642046415431362F464154335C
:104500003220706172746974696F6E2E0A4D616B2E
:1045100065207375726520796F7527766520666FE3
:10452000726D61747465642074686520636172647F
:10453000000A566F6C756D6520747970652069731B
:104540002046415400566F6C756D652073697A651D
:1045500020286279746573293A2000566F6C756D56
:10456000652073697A6520284B6279746573293AEE
:104570002000566F6C756D652073697A6520284D33
:104580006279746573293A2000FFFFFFFFFFFFFF88
:104590000000000000000000E507000081080000A6
:1045A00021080000350800005D0800001D0800001B
:1045B0000200030004000500060008000A000C00C9
:1045C000100014001800200028003800400060008F
:1045D0008000C00000018001000280020003FFFF94
:1045E0000000008000000180000000000000028048
:1045F0000000010001100000000002000110010095
:10460000032000000100020003200100043000002C
:1046100003200200032003000540000005400100C4
:10462000065000000650010007600000076001000E
:10463000087000000760020008700100FFFFFFFF24
:10464000000000000000000099140000CB190000D9
:104650000D0AFFFF4008FE4340A004404408FE430B
:1046600044A004400018FE4300C004403000FE4354
:10467000309004403400FE43349004401C18FE4344
:104680001CC004401018FE4310C004400818FE432C
:1046900008C004400C18FE430CC004400C10FE433C
:1046A0000CB004401010FE4310B004401810FE433C
:1046B00018B004401C10FE431CB004401410FE430C
:1046C00014B004400418FE4304C004400010FE432C
:1046D00000B004400008FE4300A004400408FE436C
:1046E00004A004400C08FE430CA004400808FE434C
:1046F00008A004401418FE4314C004401818FE43D8
:1047000018C004400410FE4304B004400810FE43E7
:1047100008B004401400FE43149004404C08FE43CB
:104720004CA004400420FE4304D004402410FE4367
:1047300024B004402010FE4320B004402810FE4363
:1047400028B004402C10FE432CB004400020FE434F
:1047500000D004404808FE4348A004401000FE4337
:1047600010900440FFFFFFFF000000000000000069
:10477000BD290000C3290000A9290000AD290000BF
:10478000B1290000B5290000B9290000000000008F
:104790000000000000000000B72D0000CF2D000039
:1047A0009F2D0000A72D0000A32D0000AB2D0000C1
:1047B000352D0000472D0000672D00006B2D0000F7
:1047C000712D0000772D00007F2D00008F2D00003F
:1047D000AF2D0000B32D0000052D0000112D0000AD
:1047E0001D2D0000292D0000DF2D0000C32D00002D
:1047F0000000000000000000C72E0000DF2E0000B7
:10480000AF2E0000B72E0000B32E0000BB2E00001C
:10481000452E0000572E0000772E00007B2E000052
:10482000812E0000872E00008F2E00009F2E00009A
:10483000BF2E0000C32E0000152E0000212E000008
:104840002D2E0000392E0000EF2E0000D32E000088
:104850000000000000000000D72F0000EF2F000034
:10486000BF2F0000C72F0000C32F0000CB2F000078
:10487000552F0000672F0000872F00008B2F0000AE
:10488000912F0000972F00009F2F0000AF2F0000F6
:10489000CF2F0000D32F0000252F0000312F000064
:1048A0003D2F0000492F0000FF2F0000E32F0000E4
:1048B00000151915000100007287FF1F120000008B
:1048C000000200009C87FF1F43000000000300005F
:1048D000F687FF1F00000000010309048487FF1F03
:1048E0000000000002030904E087FF1F0000000031
:1048F00003030904FA87FF1F000000000000000006
:104900000000000000000000F8B500BFF8BC08BCC3
:104910009E4670473504000071070000490A0000F8
:10492000F9110000D1170000CD290000F92D000079
:08493000092F000019300000FE
:1049380000000000FFFFFFFFFFFFFFFF0A0401095F
:104948000A081201010102000040C0168304000297
:104958000102030118035400650065006E0073002E
:1049680079006400750069006E006F000902430059
:10497800020100C0320904000001020201000524FE
:104988000010010524010101042402060524060083
:10499800010705820310004009040100020A000013
:1049A80000070503024000000705840240000000DC
:1049B80016035500530042002000530065007200A2
:1049C800690061006C00040309040C030000000086
:1049D80000000000000000000000000000000000CF
:00000001FF
