:1000000000800020BD010000E9150000B5150000CA
:10001000B5150000B5150000B5150000B5150000B8
:10002000B5150000B5150000B5150000E915000074
:10003000E9150000B5150000E9150000A515000040
:10004000E9150000E9150000E9150000E9150000B8
:10005000E9150000E9150000E9150000E9150000A8
:10006000E9150000E9150000E9150000E915000098
:10007000E9150000E9150000E9150000E915000088
:10008000E9150000E9150000E9150000E915000078
:10009000E9150000E9150000E9150000E915000068
:1000A000E9150000E9150000E9150000E915000058
:1000B000E9150000E9150000E9150000E915000048
:1000C000E9150000E9150000E9150000E915000038
:1000D000E9150000E9150000E9150000E915000028
:1000E000E9150000E9150000E9150000E915000018
:1000F000E9150000B51B0000E915000071220000A1
:10010000E915000071270000E9150000E91500005D
:10011000E9150000E9150000E9150000E9150000E7
:10012000E9150000E9150000E9150000E9150000D7
:10013000E9150000E9150000E9150000E9150000C7
:10014000E9150000E9150000E9150000E9150000B7
:10015000E9150000E9150000E9150000E9150000A7
:10016000E915000025080000E9150000E915000068
:10017000E9150000E9150000E9150000E915000087
:10018000E9150000E9150000E9150000E915000077
:10019000E9150000E9150000E9150000E915000067
:1001A000E9150000E9150000E9150000E915000057
:1001B000E9150000E9150000E9150000564B4CF266
:1001C000205210B51A804DF628121A8000BF00BFC9
:1001D00001F00EFA514B4FF010621A60504A9A60CB
:1001E000504ADA60A3F53043203B1A6812F480725B
:1001F00004D14D490A604FF4A8521A604B4B1A784B
:10020000110703D51A7842F008021A70484B2A22C7
:100210001A700023474A48499818884204D247492F
:10022000595899500433F5E7454A464B9A424FF0E6
:10023000000302D242F8043BF7E74349434A5958C6
:1002400099500433B3F5DE7FF7D1414B802103F899
:10025000011B40498B42F9D13F4B1A603F4B8A2228
:100260001A70A3F5805324225A70A0221A709A792A
:100270009207FCD59A79D406FCD4394B9A7902F0CE
:100280000C02082AF9D103221A7140225A719A7974
:100290009006FCD5324B9A795106FBD5314A32494A
:1002A00011600221516020221A702D4B9B7903F0BE
:1002B0000C030C2BF9D12D4B2D4A1A602D4B2E4AD5
:1002C0001A6000225A60072243F8042C2B4AC3F814
:1002D0000C2D62B600F08CF9134B1B68DA0705D5BC
:1002E000274800F0E3F8274B274A1A60274B1B7872
:1002F0005B0609D5234C244A2368934204D1204845
:1003000000F0D4F80023236002F010FB01F076F92E
:1003100000F0C4F8FEE700BF0E2005403080044026
:10032000823F04000100002B14D0034002D007409C
:1003300000E007406087FF1F0C88FF1F582C00005B
:100340000C88FF1FFC8AFF1F000000000082FF1FB7
:1003500000E400E05FE400E008ED00E0005006404B
:100360000040064044800440000003010480044033
:10037000C010050014E000E0FF760100000020201E
:10038000D2B0D0571CE00340A5C3945A00F00740F8
:10039000FFFFFFFFFFFFFFFFFFFFFFFFFFFFFFFF6D
:1003A000FFFFFFFFFFFFFFFFFFFFFFFFFFFFFFFF5D
:1003B000FFFFFFFFFFFFFFFFFFFFFFFFFFFFFFFF4D
:1003C000FFFFFFFFFFFFFFFFFFFFFFFFFFFFFFFF3D
:1003D000FFFFFFFFFFFFFFFFFFFFFFFFFFFFFFFF2D
:1003E000FFFFFFFFFFFFFFFFFFFFFFFFFFFFFFFF1D
:1003F000FFFFFFFFFFFFFFFFFFFFFFFFFFFFFFFF0D
:10040000FFFFFFFFFFFFFFFFFFFFFFFFDEF9FFFF23
:1004100010B5054C237833B9044B13B10448AFF33E
:1004200000800123237010BD0C88FF1F0000000016
:10043000582C000008B5064B1BB106480649AFF31F
:1004400000800648036813B1054B03B1984708BD07
:1004500000000000582C00001088FF1F0C88FF1FB0
:1004600000000000024B0121187800F04FB800BFD7
:100470006087FF1F10B5084C0121207800F026F896
:10048000642000F09FF82078002100F01FF8C820B9
:10049000BDE8104000F096B86087FF1F08B5FFF771
:1004A000E1FFFFF7E7FF00F069FEFAE7044B0549BB
:1004B00000221A600A60044A106010221A60704715
:1004C00014D0034004D0034000D00340212810B5CD
:1004D00018D80D4A52F8303093F880423CB10122CE
:1004E00011B183F8802010BD83F8002110BD02EB0C
:1004F000C00043681A6811B142F0030201E022F023
:1005000002021A6010BD00BF88290000212810B522
:1005100037D81C4A02EBC00301295B68144601D09E
:1005200004290FD154F83020012082F880024FF4C2
:10053000A2721A601A6804290CBF42F0200222F04D
:1005400020021DE052F83020002082F8800211B114
:100550008A1E012A12D84FF4807202291A6003D130
:100560001A6842F003020BE003290AD11A6842F02C
:1005700002021A601A6822F0010201E040F203123E
:100580001A6010BD8829000072B60B4B0B491A681F
:100590000B4B1B68096862B6490102D5322A88BF35
:1005A0000133C2F5BB326021FF32B2FBF1F24FF4EE
:1005B0007A7000FB0320704718E000E004ED00E0D3
:1005C0002888FF1F38B50446FFF7DEFF054624B92B
:1005D00038BD013C0AD005F57A75FFF7D5FF401B01
:1005E000B0F57A7FF5D200F0C9FDF6E738BDFFFF20
:1005F000204B4FF4000210B51A604FF080721A6061
:100600004FF000721A604FF080621A604FF0006283
:100610001A60194B194A1A4C00204BF6FF711860EA
:10062000596028231360936013619361136293628E
:10063000136393630922226004F58054043420601C
:100640006160A360236144F8042C04F5FE2420605B
:100650000C4801600C490B608B600C4B1A6000F079
:1006600045FF4FF4C870FFF7ADFFBDE8104000F044
:10067000D7BB00BF08E100E0048003400C800340CA
:100680000080034008800B400C800B4000800B4032
:10069000F0B50C4B0C4C1A7842F0020504EBC50681
:1006A00082F00102706009481A700678002E0CBFB3
:1006B0008827C82786F0010647EA0141067044F8FA
:1006C0003510F0BD9488FF1F0080FF1F0C89FF1FAD
:1006D000431E032B10B510D872B6094A52F82300F6
:1006E00048B1416842F82310064A018832F81340A5
:1006F000611A22F8131062B610BD002010BD00BFB1
:100700008488FF1FE88AFF1F013803280AD872B6C1
:10071000054B53F82030002013B101305B68FBE734
:1007200062B6704700207047D888FF1F10B572B6B8
:100730000123174A1A4412F8012C12071CD59900FC
:10074000144A52F831402CB902EB43130830586078
:10075000114B09E041F0010152F8314064B902EB5C
:10076000C103083058600D4B42F831300C4B1A78F9
:10077000013A1A7062B610BD0133052BD9D162B6A9
:10078000074B00221A70BDE8104000F0A7BB00BF65
:10079000B82B00000080FF1F88004000C800400008
:1007A0000289FF1F431E032B30B532D8194A40017E
:1007B00040F01000104472B6174CE25C032A09D8CE
:1007C000DFE802F0160218050830022213E00830B4
:1007D000042210E01148124A50F8234014B940F89E
:1007E000231002E052F82300416042F823100FE08A
:1007F000032200E00522E25410F0080F01F1080383
:100800000A8843600CBF8823C82343EA024303607D
:1008100062B630BD0080FF1F4088FF1FD888FF1FD1
:10082000E888FF1F2DE9F84FAB4F3C78E4B214F095
:10083000040F3D4619D0A94B1B78A3B1A84A1178E3
:1008400001F0FF0321B1013BDBB2137003B900BE1D
:10085000A44A117801F0FF0329B1013BDBB2137008
:100860000BB900F067FC04233B7004F0080303F0AD
:10087000FF02002B00F067829B4B9C4C1A78D2B28F
:1008800015094FEA920840F0E48104EBC803596867
:1008900054F83830C3F38303013B0C2B00F2D681AC
:1008A000DFE813F095019501D401D401D401D401FE
:1008B000D401D401B001D401D401D4010D008C4D78
:1008C0000A684B688B486B6001218B4B44F83830C9
:1008D0002A60DFF85082017092B240F281600023FA
:1008E0008242C8F800302361A36117D8B2F5D06FF7
:1008F00080F01E81B2F5817F00F0CF8006D8802A7B
:1009000000F0BA80822A00F0BB8031E140F202336D
:100910009A4200F0D180B2F5A06F1CE042F22100B3
:10092000824200F051810ED8B2F5086F00F09E802F
:10093000B2F5106F40F01C81684B6C4EAA781A70AB
:1009400006F180090AE042F221218A4200F0088182
:1009500042F221339A4200F00F8109E1336A1B060B
:1009600003D5706A083800F0B9FA08364E45F5D15B
:100970000026B146DFF8B0A156F80A0028B1D0F839
:1009800004B000F0ABFA5846F8E74AF806005B4BB3
:10099000DFF898A1F05056F80A0028B1D0F804B05A
:1009A00000F09CFA5846F8E7554B4AF80600F0501C
:1009B000544B23F81900544B19F80320023A032A28
:1009C00008D8DFE802F002040204002200E001225D
:1009D00003F8092009F10109B9F1040F06F1040631
:1009E000C8D14A4B00221A7001269A46484A494B00
:1009F0003244334412F8012C9B0012F0080F1A7095
:100A00004FEA860925D000F04BFA38B104EB4613C3
:100A100008305860404B44F8393006E09AF800300E
:100A200044F8390001338AF8003000F039FA49F00F
:100A3000010338B104EBC302083050602E4A44F879
:100A4000332006E044F833009AF8003001338AF886
:100A5000003049F00202013649F003090023052E57
:100A600044F8323044F83930C0D186E01B4B2B4C6F
:100A70001B7823700B4683E0284C237063707EE064
:100A8000AA88042A74D8254C920023706370244BE2
:100A90009B5C9E0773D5217071E0AA8802F07F02EB
:100AA000042A65DC6B88002B62D191001C4A0A4441
:100AB000117821F0020159E0AA8802F07F02042A8D
:100AC00056DC6B88002B53D19100154A0A441178EB
:100AD00041F002014AE000BF802007400B89FF1F60
:100AE0009588FF1F0D89FF1F902007400080FF1F82
:100AF000F888FF1F0C89FF1FC80040003088FF1FC7
:100B0000E888FF1FE88AFF1F4088FF1F0289FF1F38
:100B1000B82B000030C80110880040000389FF1F77
:100B2000C02007402C88FF1F8488FF1FD888FF1F24
:100B30006A88A9889F4B53F8084CA3F10C00BCB1FC
:100B400033F80C6C964209D133F80A6C8E4205D109
:100B5000120A032A0CBF2378038911E00C33EAE759
:100B6000954A1168954A1160A978954A117004E078
:100B7000944B0F221A7027E000231C4600E002234A
:100B8000EE88B34238BF1E46402E34BF354640255E
:100B900020462946FFF77CFD761B2C4403D1402DCF
:100BA00012D1354603E0402E34BF3546402520465D
:100BB0002946FFF76DFD761B2C4401D1402D03D152
:100BC000814AC8F8004016800122804B3DE0804BEE
:100BD0001A8842F221039A4210D100237D4AC85C50
:100BE00098540133072BF9D11368862B02D17A4B25
:100BF0000F221A7000200146FFF74AFD774B44F898
:100C0000383023E0764E3568B5B1DFF8BC81B8F8EE
:100C10000090B9F1400F34BF4C464024284621468D
:100C2000FFF736FDC4EB09039BB2A8F800300BB9FF
:100C3000402C00D12B193360654B1A88B2F5A06F98
:100C400004D100225A709A78664B1A7001225F4BC9
:100C50006CE004EBC806013D736802F00802A3F1E2
:100C60000800EDB202F0FF01002A36D000F036F99C
:100C70005D485E4B50F82520EAB1516840F82510D8
:100C800002F108017160595D03290BD8DFE801F01A
:100C900002040608032104E0022102E0052100E02D
:100CA0000421595516F0080F12880CBF8823C82359
:100CB00043EA024342E05A5D032A07D8DFE802F024
:100CC00040400204002206E0012204E016F0080F72
:100CD0000CBF022203225A5532E054F83820120C7D
:100CE00023F8082C22B3DFF834E123F8061C43F87C
:100CF000041C5EF825303E4913B94EF8250002E089
:100D000051F8253058603B4B41F8250033F8151059
:100D10000A4423F8152000F0C3F810B108307060C1
:100D200006E0354B44F838001A7801321A7007E0B3
:100D30002A4B324A16F0080F08BF134644F83830E1
:100D400008233B7070E5E0071FD520492B482C4C49
:100D500002230B702B4B1A702B4B186098602B489A
:100D6000D8601A619A615C60164B0D201870284893
:100D7000FF2303702B700274264A1370264B9F22A8
:100D80001A7001230B70BDE8F88F210604D50D4BB6
:100D90000D221A7080232B70A20705D51C4B1A78E0
:100DA000D2B21A7002232B70E30644BF10232B70BB
:100DB000BDE8F88FC82B00002888FF1FF88AFF1FA6
:100DC0001C89FF1FC02007400089FF1F9420074097
:100DD000F888FF1FF08AFF1F9588FF1FC80040009A
:100DE0002C88FF1F98200740D888FF1F4088FF1FCE
:100DF0003088FF1FE88AFF1F0289FF1F880040001C
:100E00004488FF1F9488FF1F0080FF1F9888FF1FE2
:100E1000882007408C200740842007408488FF1FDB
:100E200008B501F00DFD00221A4B0021D150981891
:100E30000832882A4160F7D1174A106840F48020B0
:100E4000106002F528326832C3F307201070C3F334
:100E500007401B0E10751376FF2302F81C3C02F8A6
:100E6000143C02F88C3C012302F8083C82F8641020
:100E700002F8183C094B70226FF450711A700B4441
:100E80004FF400721A6003F1C04303F5C823102227
:100E90001A7008BD0080FF1F3480044049E400E060
:100EA00072B60C4A1168B1FA81F30B2B02D962B603
:100EB000002070474FF00040D84021EA0001116047
:100EC00062B6054948225343C8180022CA504260FE
:100ED000704700BF6487FF1F0084FF1F0C4B482230
:100EE000C31AB3FBF2F30B2B11D80A4A127822B1C2
:100EF000094A12780AB1FFF719BC72B6074A4FF0D7
:100F0000004121FA03F311681943116062B670477A
:100F10000084FF1F0289FF1F0B89FF1F6487FF1FCB
:100F200010B5104C23686BB120684288531C0244F2
:100F3000147A0288934212D3FFF7D0FF094B0022A4
:100F40001A600DE0084B1B7813B94FF0FF3010BD4D
:100F50000320FFF7BDFB20600028E5D1F5E74380C3
:100F6000204610BD1889FF1F0B89FF1F10B50B4CC1
:100F7000236813B123686BB902E0094B1B7813B9DE
:100F80004FF0FF3010BD0320FFF7A2FB20600028C8
:100F9000F0D1F5E75A881344187A10BD1889FF1F5D
:100FA0000B89FF1F044B9888044B1B681BB11A88E0
:100FB0005B88D31A18447047E88AFF1F1889FF1FFF
:100FC00010B5094B1B786BB1084C206818B1FFF7BE
:100FD00085FF002323600320FFF77AFB10B1FFF7A2
:100FE0007DFFF8E710BD00BF0B89FF1F1889FF1FA9
:100FF0002DE9F8432D4E012307460C463370002C93
:101000004FD02B4D2B68A9462BBB4AF2F928294B10
:101010001B7803F0FF020BB9327015E00420FFF7D4
:1010200073FB072808D801233370FFF739FFC9F88D
:10103000000080B91D4B1870B8F101081E4B01D09B
:101040001A782AB101221A704FF0FF30BDE8F883F8
:1010500000F094F8DBE72968174A488800231370EA
:10106000C0F14002944238BF224600F1080C1044FF
:101070008C444880A41A934204D0F85C0CF8030016
:101080000133F8E71F444B883F2B06D940230B80E0
:101090000420FFF787FB00232B60084B05221A7002
:1010A000ADE734702046BDE8F88300BF0E89FF1F0E
:1010B0001089FF1F0B89FF1F1489FF1F0D89FF1F58
:1010C00007B502AB012103F8010D1846FFF790FFA9
:1010D00003B05DF804FBFFFF2DE9F041114B1B78D5
:1010E000F3B1114E114B3468114D01271F70984612
:1010F0004CB1002763882F70042023802146FFF71E
:1011000051FB376009E0FFF7CBFE014620B1042018
:101110002C70FFF747FB00E02F70002388F80030A9
:10112000BDE8F0810B89FF1F1089FF1F0E89FF1F8B
:101130000D89FF1F38B50E4B1B7803F0FF05ABB9C7
:101140000C4C216831B14B880B800420FFF72AFB3F
:10115000256038BDFFF7A4FE014620B10420BDE89C
:101160003840FFF71FBB044B01221A7038BD00BF87
:101170000E89FF1F1089FF1F0D89FF1F10B50E4C30
:101180002378BBB901232370FFF70CFF08B101F0EE
:10119000A0FB00F099FC08B100F089F800F0F2FF24
:1011A00008B100F00CF901F07FFA08B100F08FF9F6
:1011B0000023237010BD00BF1D89FF1F08B5036801
:1011C000C9B21B68984708BD08B50368C9B21B6857
:1011D000984708BD08B50368C9B21B68984708BDA1
:1011E00008B50368C9B21B68984708BD4B0803F1EE
:1011F000376000F5D830B0FBF1F000F01FBA10B541
:101200004B0803F1376000F5D8301446B0FBF1F01D
:1012100000F014FA2046BDE8104000F073BA00F068
:101220009BBA084600F0CCBA084600F01BBB084643
:10123000114600F0E1BA08B5084600F039FB00306D
:1012400018BF012008BD08B5084600F053FB003068
:1012500018BF012008BD00F037BC00F06FBC00F0E3
:1012600043BC00F015BC00F081BC00F01BBC08B50D
:10127000084600F065FB012008BD08B5084600F0EF
:101280005FFB012008BD10B508461446114600F06A
:10129000A1FB204610BD38B508460D4601F06CFB99
:1012A00004462146284600F095FB204638BD70478D
:1012B000044B00221A714FF47A711A73024A996032
:1012C0001A6070472089FF1FA02A000008B5036834
:1012D000C9B21B68984708BD08B50368C9B21B6846
:1012E000984708BD08B50368C9B21B68984708BD90
:1012F00008B50368C9B21B68984708BD4B0803F1DD
:10130000376000F5D830B0FBF1F000F0D7BC10B575
:101310004B0803F1376000F5D8301446B0FBF1F00C
:1013200000F0CCFC2046BDE8104000F02BBD00F0E2
:1013300053BD084600F0A8BD084600F0F7BD0846BA
:10134000114600F0BDBD08B5084600F017FE00309C
:1013500018BF012008BD08B5084600F031FE003076
:1013600018BF012008BD00F00DBF00F045BF00F020
:1013700019BF00F0EBBE00F057BF00F0F1BE08B59A
:10138000084600F03BFE012008BD08B5084600F005
:1013900035FE012008BD10B508461446114600F080
:1013A00077FE204610BD38B508460D4601F0E4FA38
:1013B00004462146284600F06BFE204638BD7047A3
:1013C000044B00221A714FF47A711A73024A996021
:1013D0001A6070473089FF1F002B000008B50368B2
:1013E000C9B21B68984708BD08B50368C9B21B6835
:1013F000984708BD08B50368C9B21B68984708BD7F
:1014000008B50368C9B21B68984708BD4B0803F1CB
:10141000B76000F55840B0FBF1F000F0ADBF10B57B
:101420004B0803F1B76000F558401446B0FBF1F0EB
:1014300000F0A2FF2046BDE8104000F0DFBF01F041
:1014400007B8084601F038B8084601F079B80846F0
:10145000114601F04DB808B5084601F073F80030A8
:1014600018BF012008BD08B5084601F08DF800300E
:1014700018BF012008BD01F017B901F04FB901F004
:1014800023B901F0F5B801F061B901F0FBB808B576
:10149000084601F097F8012008BD08B5084601F09C
:1014A00091F8012008BD10B508461446114601F018
:1014B000D3F8204610BD38B508460D4601F05CFA59
:1014C00004462146284601F0C7F8204638BD70473B
:1014D000044B00221A714FF47A711A73024A996010
:1014E0001A6070474089FF1F602B000010B5204B29
:1014F0002048214960221A70E1225A701F4B204A6D
:101500001C78204B082C01D1012402E00A2C03D1C5
:1015100039240460132005E00C2C0CBF35243D2435
:1015200004601220086014601860174B17491B787C
:10153000174A03B101230B601360164B164A197842
:10154000164B012901D880210BE0042901D8842100
:1015500007E0082901D8852103E0102994BF8621DE
:101560008721116019600E4B01221A7010BD00BF57
:101570000040074008B003400CB003406887FF1FDD
:1015800008B00B400CB00B405189FF1F20B0034046
:1015900020B00B406987FF1F24B0034024B00B40EC
:1015A0005089FF1F024B1A6801321A60704700BF52
:1015B0002888FF1F08B50B4C2368580301D5FFF797
:1015C00031F92368590501D500F0F4FA23681A05AA
:1015D00001D500F04DFE2368DB04ECD501F0C8F81E
:1015E000E9E700BF3480044008B5FFF7E3FFFFFFE1
:1015F000014B10221A807047002005407047FFFF02
:10160000EFF313839BB9EFF3108098B9EFF30583E1
:1016100023B10F2B04D9084A985C01E04FF4807085
:10162000EFF311833BB1834238BF184670474FF048
:10163000FF30704718467047F0E300E0234B1A680C
:1016400042F480621A60224A00231370214A137008
:10165000214A1370214A1370214A1370214B1B78C1
:101660002BB1152B07D140F213321F4B02E01F4B59
:1016700040F213321A601E4B1B78012B05D0052B4C
:1016800007D14FF451721B4B02E01B4B4FF45172C8
:101690001A601A4BC0F344321A70C0F347125A70E2
:1016A0000221042200F01F0098729A70D9745A75B2
:1016B00088221A743C22DA70114B40226FF44A716E
:1016C0001A700B444FF400521A6070473480044083
:1016D000DB89FF1F5989FF1FE489FF1FDC89FF1F7A
:1016E0005889FF1F9A89FF1F18C0044040A004407A
:1016F0006A87FF1F1CC0044044A0044000A00640AD
:101700002DE400E0134A937800F0030103F0EC03AA
:101710000B43410748BF43F01003937000F00F03E1
:10172000042B0C4903D18B7943F040038B7153791F
:10173000C20603F0EF03074A48BF43F0100353719A
:101740009379810603F0EF0348BF43F010039371D0
:10175000704700BF00A0064008B5114B1B685B0531
:1017600000D408BD0F4B1A7802F0FF0312B1FFF747
:1017700005FDF7E70C4A4FF4005111600B4A0C4984
:10178000D37040F203120A604A600A4A13700A4A90
:1017900013700A4B1B680BB101221A7008BD00BF01
:1017A000348004405889FF1F84E100E000A0064017
:1017B00040A00440DB89FF1F5989FF1F5489FF1F88
:1017C00038B50446094B1B7803F0FF05002BF9D10F
:1017D00020460121FEF79AFE20462946FEF776FEB6
:1017E000034B53F83420034B1A6038BD5889FF1F50
:1017F00088290000E089FF1F10B509B140F0800082
:10180000144A13789842144622D0134A126852059B
:101810001DD503F07F03012B04D0052B05D1002239
:101820000E4B01E00E4B00221A60002900F07F02EF
:101830000CBF44236023012A05D0052A07D143F4B5
:101840004073064A02E0064A43F440731360207076
:1018500010BD00BF6A87FF1F348004401CC00440D5
:1018600044A004400E4A1378984218D00D490968E4
:10187000490513D52BB1152B05D10B4B0021196050
:1018800001E00A490B6028B1152807D140F2133155
:10189000054B02E0054B40F21331196010707047A0
:1018A0009A89FF1F3480044018C0044040A00440BF
:1018B0000D4A38B5146814F480624FF0000410D05B
:1018C00021280A4D0AD80A4A012152F830302B60EB
:1018D000FEF71CFE2B681C70012038BD2C602046D2
:1018E00038BD104638BD00BF348004405489FF1F06
:1018F000882900000E4B1B6813F4806316D0122851
:101900000C4B03D140F202310B4A04E0142809D1F8
:101910000A4A40F2023111605A7B42F001025A73C6
:10192000012070475A7B02F0FE025A730020704774
:101930003480044000A006400CA0044014C00440C1
:10194000F8B51D4B1B685A05064633D51B4B1B6863
:101950000BB101221A701A4B1C780134402C1F461F
:1019600028BF0024174D2B78A34218D1FFF748FE5B
:1019700040280FDC144A13791B06F3D52B78134942
:101980000133402B28BF0023C95CDBB2C9B2D1713F
:101990002B70E7E7FF28E5DDFFF7F0FBE2E70B4BF5
:1019A000F6B21E550A4B01221A70074BE4B2BC2254
:1019B0003C70DA70F8BD00BF34800440E089FF1F3E
:1019C000E489FF1FDC89FF1F00A006405A89FF1F22
:1019D0005889FF1F274B1B685A052DE9F04707461A
:1019E0008A4644D5244B1B680BB101221A703D4630
:1019F00007EB0A039D4237D2DFF890801F4E98F81C
:101A0000004096F800900134402C28BF00245FFA73
:101A100089F9A1451DD11A4BBC22DA70FFF7F0FD00
:101A200040280FDC164A13791B060FD53378154969
:101A30000133402B28BF0023C95CDBB2C9B2D1718E
:101A4000337003E0FF2801DDFFF798FB33784B4547
:101A5000E4D00C4B15F8012B1A550B4B0122E4B2C4
:101A60001A7088F80040C3E7054BBC22DA70BDE865
:101A7000F08700BF34800440E089FF1FDC89FF1F2E
:101A800000A006405A89FF1F5889FF1FE489FF1FE5
:101A900008B5034B1B7813B1FFF770FBF9E708BDDE
:101AA0005889FF1F064A074B1B781078DBB2C0B27B
:101AB00083422CBF3F3000F1FF30C01A704700BF97
:101AC000DC89FF1FE489FF1F054B1878054B1B7845
:101AD000C0B2DBB2984238BF4030C01A704700BF76
:101AE000DB89FF1F5989FF1F10B5104B10491A7869
:101AF0000B78D2B2DBB29A4214D00133402B28BF0C
:101B000000230C48DCB2C05C0C700B490968C0B201
:101B100051B19A4238BF4032D31A1A2B04DC002349
:101B20000B7010BD4FF0FF3010BD00BFDB89FF1FF1
:101B30005989FF1F9B89FF1F5489FF1F084B1A7883
:101B4000084B1B78DBB29A4207D00133402B28BFE9
:101B50000023054AD05CC0B270474FF0FF30704799
:101B6000DB89FF1F5989FF1F9B89FF1F0C4B1B68D7
:101B70005B0514D50B4BDA7802F0CB02DA70402209
:101B80005A74DA7842F03402DA70074B1A78074B4D
:101B9000D2B21A70064B1B680BB100221A70704744
:101BA0003480044000A006405989FF1FDB89FF1FD5
:101BB0005489FF1F30B5374B1A7912F0300F31D0EE
:101BC00072B69A7D02F0FF0022B9DA7940225A7487
:101BD00062B627E062B6304A304913780978DBB242
:101BE000C9B214462B4AD5795A1C402A28BF002274
:101BF0008A42EDB202D02A4B9D541346421E12F087
:101C0000FF00EFD1DAB22270264A126852B18B423D
:101C100036BFC1F14001C1EB03035B18272BC4BFE2
:101C2000012313701B4BD978C9B20C0620D51B7940
:101C300018061DD51C4B1D4A1D781378EDB2DBB27A
:101C40001046AB420CD0134A0133402B1479184C88
:101C500028BF0023E45CE4B2D471127D072AF0D9D6
:101C6000DBB203700B4B1A79120644BF7C22DA7088
:101C70004B060ED5074B1A7912F0400F194608D0C3
:101C80000C4B00221A700C4B1B6803B11A703C23DA
:101C9000CB7030BD00A00640DB89FF1F5989FF1FB4
:101CA0009B89FF1F5489FF1FE489FF1FDC89FF1FE9
:101CB0005A89FF1F5889FF1FE089FF1F234B1A68AD
:101CC00042F400621A60224A00231370214A137002
:101CD000214A1370214A1370214A1370214B1B783B
:101CE000092B05D01A2B07D140F213321E4B02E00C
:101CF0001E4B40F213321A601D4B1B780A2B05D085
:101D00001F2B07D14FF451721A4B02E01A4B4FF4BC
:101D100051721A60194BC0F344321A70C0F3471263
:101D20005A7000F01F000422022198729A70D97430
:101D30005A7588221A743C22DA70114B40221A70AC
:101D4000A3F22B334FF400421A60704734800440F2
:101D5000568AFF1FED89FF1F5C8AFF1F578AFF1FEE
:101D6000EC89FF1F6B87FF1F04D004400CB00440B8
:101D70006C87FF1F00D0044010B0044000B0064044
:101D80002FE400E0134A937800F0030103F0EC0322
:101D90000B43410748BF43F01003937000F00F035B
:101DA000042B0C4903D18B7943F040038B71537999
:101DB000C20603F0EF03074A48BF43F01003537114
:101DC0009379810603F0EF0348BF43F0100393714A
:101DD000704700BF00B0064008B51E4B1B681B05CE
:101DE00000D408BD1C4B1B7803F0FF0213B1FFF7B2
:101DF000C5F9F7E7194B4FF400411960184BDA7039
:101E0000184B1B78092B05D01A2B07D140F203126F
:101E1000154B02E0154B40F203121A60144B1B786D
:101E200003F07F030A2B05D01F2B07D140F20312CA
:101E3000104B02E0104B40F203121A600F4A0023CD
:101E400013700F4A13700F4B1B680BB101221A70ED
:101E500008BD00BF34800440EC89FF1F84E100E02E
:101E600000B006406B87FF1F04D004400CB0044054
:101E70006C87FF1F00D0044010B00440568AFF1F3B
:101E8000ED89FF1FE889FF1F38B50446094B1B7811
:101E900003F0FF05002BF9D120460121FEF736FBA8
:101EA00020462946FEF712FB034B53F83420034B20
:101EB0001A6038BDEC89FF1F88290000588AFF1F6F
:101EC00010B509B140F08000144A137898421446C6
:101ED00022D0134A126812051DD503F07F030A2B86
:101EE00004D01F2B05D100220E4B01E00E4B002227
:101EF0001A60002900F07F020CBF442360230A2AE5
:101F000005D01F2A07D143F44073064A02E0064A6F
:101F100043F440731360207010BD00BF6C87FF1F37
:101F20003480044000D0044010B004400F4A1378BD
:101F300098421AD00E490968090515D5092B04D015
:101F40001A2B05D100210B4B01E00B4B002119602E
:101F5000092805D01A2807D140F21331054B02E0B9
:101F6000054B40F213311960107070476B87FF1FEB
:101F70003480044004D004400CB004400D4A38B50D
:101F8000146814F400624FF0000410D021280A4DA8
:101F90000AD80A4A012152F830302B60FEF7B6FA0F
:101FA0002B681C70012038BD2C60204638BD1046BF
:101FB00038BD00BF34800440E889FF1F8829000035
:101FC0000B4B1B6813F4006310D01728094B09D181
:101FD000094A40F2023111605A7B42F001025A7301
:101FE000012070475A7B02F0FE025A7300207047AE
:101FF0003480044000B0064008B00440F8B51D4BE2
:102000001B681A05064633D51B4B1B680BB1012212
:102010001A701A4B1C780134282C1F4628BF002444
:10202000174D2B78A34218D1FFF7EAFA40280FDCAE
:10203000144A13791B06F3D52B7813490133282B47
:1020400028BF0023C95CDBB2C9B2D1712B70E7E7AE
:10205000FF28E5DDFFF792F8E2E70B4BF6B21E55DD
:102060000A4B01221A70074BE4B2BC223C70DA70B2
:10207000F8BD00BF34800440588AFF1F5C8AFF1FF0
:10208000578AFF1F00B00640EE89FF1FEC89FF1F33
:10209000274B1B681A052DE9F04707468A4644D5A9
:1020A000244B1B680BB101221A703D4607EB0A0353
:1020B0009D4237D2DFF890801F4E98F8004096F886
:1020C00000900134282C28BF00245FFA89F9A1452B
:1020D0001DD11A4BBC22DA70FFF792FA40280FDCB0
:1020E000164A13791B060FD5337815490133282B6F
:1020F00028BF0023C95CDBB2C9B2D171337003E0E1
:10210000FF2801DDFFF73AF833784B45E4D00C4B5C
:1021100015F8012B1A550B4B0122E4B21A7088F8FE
:102120000040C3E7054BBC22DA70BDE8F08700BF72
:1021300034800440588AFF1F578AFF1F00B00640B2
:10214000EE89FF1FEC89FF1F5C8AFF1F08B5034B58
:102150001B7813B1FFF712F8F9E708BDEC89FF1FF0
:10216000064A074B1B781078DBB2C0B283422CBF03
:10217000273000F1FF30C01A704700BF578AFF1F99
:102180005C8AFF1F054B1878054B1B78C0B2DBB289
:10219000984238BF4030C01A704700BF568AFF1FB0
:1021A000ED89FF1F10B5104B10491A780B78D2B289
:1021B000DBB29A4214D00133402B28BF00230C48D5
:1021C000DCB2C05C0C700B490968C0B251B19A42D4
:1021D00038BF4032D31A1A2B04DC00230B7010BD19
:1021E0004FF0FF3010BD00BF568AFF1FED89FF1F63
:1021F000168AFF1FE889FF1F084B1A78084B1B78C7
:10220000DBB29A4207D00133402B28BF0023054A96
:10221000D05CC0B270474FF0FF307047568AFF1F46
:10222000ED89FF1F168AFF1F0C4B1B681B0514D579
:102230000B4BDA7802F0CB02DA7040225A74DA786B
:1022400042F03402DA70074B1A78074BD2B21A7098
:10225000064B1B680BB100221A7070473480044093
:1022600000B00640ED89FF1F568AFF1FE889FF1F57
:1022700030B5374B1A7912F0300F31D072B69A7DE3
:1022800002F0FF0022B9DA7940225A7462B627E0E0
:1022900062B6304A304913780978DBB2C9B21446C5
:1022A0002B4AD5795A1C402A28BF00228A42EDB217
:1022B00002D02A4B9D541346421E12F0FF00EFD16C
:1022C000DAB22270264A126852B18B4236BFC1F18F
:1022D0004001C1EB03035B18272BC4BF012313701C
:1022E0001B4BD978C9B20C0620D51B7918061DD511
:1022F0001C4B1D4A1D781378EDB2DBB21046AB4281
:102300000CD0134A0133282B1479184C28BF002312
:10231000E45CE4B2D471127D072AF0D9DBB2037019
:102320000B4B1A79120644BF7C22DA704B060ED58D
:10233000074B1A7912F0400F194608D00C4B0022B7
:102340001A700C4B1B6803B11A703C23CB7030BD64
:1023500000B00640568AFF1FED89FF1F168AFF1F37
:10236000E889FF1F5C8AFF1F578AFF1FEE89FF1F46
:10237000EC89FF1F588AFF1F174B1A6842F48052DE
:102380001A60164A00231370154A1370154A137009
:10239000154A1370154A1370154A40F21331116033
:1023A0004FF451715160134AC0F344311170C0F3BE
:1023B000471100F01F0051709072937013742C231A
:1023C000D3700D4B40226FF44B711A700B444FF4D5
:1023D00000321A60704700BF34800440CE8AFF1F6D
:1023E000658AFF1FD48AFF1FCF8AFF1F648AFF1FE1
:1023F00008C0044000C0064031E400E0134A93786E
:1024000000F0030103F0EC030B43410748BF43F026
:102410001003937000F00F03042B0C4903D18B7948
:1024200043F040038B715379C20603F0EF03074A70
:1024300048BF43F0100353719379810603F0EF0313
:1024400048BF43F010039371704700BF00C00640BF
:1024500008B5114B1B68DB0400D408BD0F4B1A787C
:1024600002F0FF0312B1FEF789FEF7E70C4A4FF4C2
:10247000003111600B4A0C49D37040F203120A601C
:102480004A600A4A13700A4A13700A4B1B680BB160
:1024900001221A7008BD00BF34800440648AFF1F07
:1024A00084E100E000C0064008C00440CE8AFF1F5F
:1024B000658AFF1F608AFF1F38B50446094B1B78E9
:1024C00003F0FF05002BF9D120460121FEF71EF88D
:1024D00020462946FDF7FAFF034B53F83420034BFF
:1024E0001A6038BD648AFF1F88290000D08AFF1F48
:1024F00010B509B140F080000E4A1378984217D009
:102500000D4C2468E40412D503F07F03082B02D19C
:102510000A4B00241C60002900F07F030CBF4421FB
:102520006021082B03D1054B41F4407119601070F4
:1025300010BD00BF6D87FF1F348004400CC00440F5
:102540007047FFFF0D4A38B5146814F480524FF0FD
:10255000000410D021280A4D0AD80A4A012152F855
:1025600030302B60FDF7D2FF2B681C70012038BD86
:102570002C60204638BD104638BD00BF3480044072
:10258000608AFF1F882900000B4B1B6813F48053DF
:1025900010D00E28094B09D1094A40F202311160CE
:1025A0005A7B42F001025A73012070475A7B02F0B5
:1025B000FE025A73002070473480044000C0064079
:1025C00004C00440F8B51D4B1B68DA04064633D539
:1025D0001B4B1B680BB101221A701A4B1C7801347B
:1025E000282C1F4628BF0024174D2B78A34218D152
:1025F000FFF706F840280FDC144A13791B06F3D5C1
:102600002B7813490133282B28BF0023C95CDBB288
:10261000C9B2D1712B70E7E7FF28E5DDFEF7AEFD0B
:10262000E2E70B4BF6B21E550A4B01221A70074B1C
:10263000E4B2AC223C70DA70F8BD00BF34800440D4
:10264000D08AFF1FD48AFF1FCF8AFF1F00C0064019
:10265000668AFF1F648AFF1F38B504464518AC42DE
:1026600004D014F8010BFFF7ADFFF8E738BDFFFF0A
:1026700008B5034B1B7813B1FEF780FDF9E708BDE1
:10268000648AFF1F064A074B1B781078DBB2C0B282
:1026900083422CBF273000F1FF30C01A704700BFC3
:1026A000CF8AFF1FD48AFF1F054B1878054B1B7874
:1026B000C0B2DBB2984238BF4030C01A704700BF8A
:1026C000CE8AFF1F658AFF1F10B5104B10491A787C
:1026D0000B78D2B2DBB29A4214D00133402B28BF20
:1026E00000230C48DCB2C05C0C700B490968C0B216
:1026F00051B19A4238BF4032D31A1A2B04DC00235E
:102700000B7010BD4FF0FF3010BD00BFCE8AFF1F11
:10271000658AFF1F8E8AFF1F608AFF1F084B1A7889
:10272000084B1B78DBB29A4207D00133402B28BFFD
:102730000023054AD05CC0B270474FF0FF307047AD
:10274000CE8AFF1F658AFF1F8E8AFF1F054B1A78EE
:10275000054BD2B21A70054B1B680BB100221A70E0
:10276000704700BF658AFF1FCE8AFF1F608AFF1F68
:1027700010B5294B1A79920620D5284AD8791378B2
:1027800027490133402B097828BF00238B42C0B270
:1027900003D02449C854D9B21170234A116869B1D1
:1027A000224A1278D2B2934236BFC2F14002C2EB43
:1027B00003039B18272BC4BF01230B70164AD17843
:1027C000C9B20C0616D51379180613D5184B17483D
:1027D0001C780378DBB29C4202D16C23D37009E0F1
:1027E0000133282B28BF0023124CE45CDBB2E4B297
:1027F000D47103704B060ED5074B1A7912F0400FB7
:10280000194608D00C4B00221A700C4B1B6803B100
:102810001A702C23CB7010BD00C00640CE8AFF1F5B
:10282000658AFF1F8E8AFF1F608AFF1FCF8AFF1FE6
:10283000D48AFF1F668AFF1F648AFF1FD08AFF1F8A
:102840001FB572B6154B70221A70154A41211170CE
:102850000F2102F8011C80221A701A781206FCD58A
:10286000104B186862B6104B984298BF0A2301AC0F
:1028700098BF584321460A2200F03AF80023E15C51
:102880000A4A29B102EB430001330A2B4180F6D1F9
:1028900001335B00137004B010BD00BF00000240A4
:1028A00007000240080002407F969800F687FF1F4D
:1028B000FEF778BBFEF734BBFEF758BBFEF70CBC47
:1028C000FEF77EBB0846FEF7FBBB08461146FEF747
:1028D0008FBB7047044B00221A714FF47A711A7340
:1028E000024A99601A607047D88AFF1F182C0000AE
:1028F00010B50023B0FBF2F402FB1400092894BFCA
:1029000030303730C0B2C85420460CB10133F1E743
:10291000CA18547022469A4206DA885CCC5C8C5401
:10292000C8540132013BF6E7084610BD70B50E4BA6
:102930000E4DED1AAD1000241E46AC4204D056F8E0
:10294000242090470134F8E700F076F9084D094B50
:10295000ED1AAD1000241E46AC4204D056F82420D7
:1029600090470134F8E770BD442C0000442C00006F
:10297000582C0000442C0000034613F8012B002AB9
:10298000FBD1181A013870474008FE4340A00440AC
:102990004408FE4344A004400018FE4300C0044025
:1029A0003000FE43309004403400FE433490044035
:1029B0001C18FE431CC004401018FE4310C0044005
:1029C0000818FE4308C004400C18FE430CC0044025
:1029D0000C10FE430CB004401010FE4310B0044035
:1029E0001810FE4318B004401C10FE431CB00440F5
:1029F0001410FE4314B004400418FE4304C0044005
:102A00000010FE4300B004400008FE4300A0044054
:102A10000408FE4304A004400C08FE430CA004403C
:102A20000808FE4308A004401418FE4314C00440E4
:102A30001818FE4318C004400410FE4304B00440BC
:102A40000810FE4308B004401400FE4314900440F4
:102A50004C08FE434CA004400420FE4304D0044034
:102A60002410FE4324B004402010FE4320B0044054
:102A70002810FE4328B004402C10FE432CB0044024
:102A80000020FE4300D004404808FE4348A0044014
:102A90001000FE4310900440000000000000000001
:102AA0006F12000087120000571200005F12000032
:102AB0005B12000063120000ED110000FF11000026
:102AC0001F12000023120000291200002F12000024
:102AD0003712000047120000671200006B1200005E
:102AE000BD110000C9110000D5110000E111000066
:102AF000971200007B1200000000000000000000A0
:102B00007F13000097130000671300006F1300008D
:102B10006B13000073130000FD1200000F13000080
:102B20002F13000033130000391300003F1300007F
:102B30004713000057130000771300007B130000B9
:102B4000CD120000D9120000E5120000F1120000C1
:102B5000A71300008B13000000000000000000001D
:102B60008F140000A7140000771400007F140000E9
:102B70007B140000831400000D1400001F140000DB
:102B80003F14000043140000491400004F140000DB
:102B90005714000067140000871400008B14000015
:102BA000DD130000E9130000F5130000011400001C
:102BB000B71400009B140000001519150001000057
:102BC0006E87FF1F12000000000200009887FF1FA1
:102BD0004300000000030000F287FF1F0000000018
:102BE000010309048087FF1F00000000020309049D
:102BF000DC87FF1F0000000003030904F687FF1FA6
:102C000000000000000000000000000000000000C4
:102C10000000000000000000C5280000CB280000D4
:102C2000B1280000B5280000B9280000BD28000028
:102C3000C128000000000000F8B500BFF8BC08BCC7
:102C40009E46704735040000B1120000C113000019
:082C5000D1140000D52800009A
:102C58000D000000FFFFFFFF0A0401090A08120126
:102C6800010102000040C0168304000201020301B2
:102C780018035400650065006E0073007900640055
:102C8800750069006E006F0009024300020100C070
:102C980032090400000102020100052400100105A8
:102CA8002401010104240206052406000107058207
:102CB8000310004009040100020A00000007050390
:102CC800024000000705840240000000160355007A
:102CD8005300420020005300650072006900610043
:102CE8006C00040309040C0300000000000000004D
:0C2CF800000000000000000000000000D0
:00000001FF
